:0200000480007A
:20800000736A253E0000000000000000000000000000000000000000000000000000000020
:208040000022240000000000000000000000000000000000000000000000000000000000DA
:20806000DFF800F0C9010020DFF800F0A1010020DFF800F005020020DFF800F08D01002063
:208080000000000000000000000000000000000000000000000000000000000000000000E0
:2080A0000000000000000000000000000000000000000000000000000000000000000000C0
:2080C0000000000000000000000000000000000000000000000000000000000000000000A0
:2080E000000000000000000000000000000000000000000000000000000000000000000080
:2081000000000000000000000000000000000000000000000000000000000000000000005F
:2081200000000000000000000000000000000000000000000000000000000000000000003F
:2081400000000000000000000000000000000000000000000000000000000000000000001F
:20816000DFF810D004485FF0E021C1F8080D25F009FB7047147B002000D802800000000005
:208180000000000000000000000000000000000000000000000000000000000000000000DF
:2081A0000000000000000000000000000000000000000000000000000000000000000000BF
:2081C00000000000000000000000000000000000000000000000000000000000000000009F
:2081E00000000000000000000000000000000000000000000000000000000000000000007F
:2082000000000000000000000000000000000000000000000000000000000000000000005E
:2082200000000000000000000000000000000000000000000000000000000000000000003E
:2082400000000000000000000000000000000000000000000000000000000000000000001E
:208260000000000000000000000000000000000003000000000000000000000000000000FB
:208280000000000000000000030000000000000000000000000000000000000000000000DB
:2082A0000400000000000000000000000000000000000000000000000300000000000000B7
:2082C00000000000000000000000000000000000030000000000000000000000000000009B
:2082E00000000000000000000300000000000000000000000000000000000000000000007B
:20830000030000000000000000000000000000000000000000000000040000000000000056
:2083200000000000000000000000000000000000030000000000000000000000000000003A
:2083400000000000000000000300000000000000000000000000000000000000000000001A
:208360000300000000000000000000000000000000000000000000000300000000000000F7
:2083800022AE28D7982F8A42CD65EF23914437712F3B4DECCFFBC0B5BCDB8981A5DBB5E919
:2083A00038B548F35BC2563919D005B6F111F1599B4F19AFA4823F9218816DDAD55E1CAB76
:2083C000420203A398AA07D8BE6F7045015B83128CB2E44EBE853124E2B4FFD5C37D0C55AC
:2083E0006F897BF2745DBE72B196163BFEB1DE803512C725A706DC9B942669CF74F19BC168
:20840000D24AF19EC1699BE4E3254F388647BEEFB5D58C8BC69DC10F659CAC77CCA10C246A
:2084200075022B596F2CE92D83E4A66EAA84744AD4FB41BDDCA9B05CB5531183DA88F9765E
:20844000ABDF66EE52513E981032B42D6DC631A83F21FB98C82703B0E40EEFBEC77F59BF04
:20846000C28FA83DF30BE0C625A70A934791A7D56F8203E05163CA06706E0E0A672929144A
:20848000FC2FD246850AB72726C9265C38211B2EED2AC45AFC6D2C4DDFB3959D130D385393
:2084A000DE63AF8B54730A65A8B2773CBB0A6A76E6AEED472EC9C2813B358214852C72929C
:2084C0006403F14CA1E8BFA2013042BC4B661AA89197F8D0708B4BC230BE5406A3516CC705
:2084E0001852EFD619E892D110A96555240699D62A20715785350EF4B8D1BB3270A06A100F
:20850000C8D0D2B816C1A41953AB4151086C371E99EB8EDF4C774827A8489BE1B5BCB03468
:20852000635AC9C5B30C1C39CB8A41E34AAAD84E73E363774FCA9C5BA3B8B2D6F36F2E682E
:20854000FCB2EF5DEE828F74602F17436F63A57872ABF0A11478C884EC39641A0802C78C50
:20856000281E6323FAFFBE90E9BD82DEEB6C50A41579C6B2F7A3F9BE2B5372E3F27871C6CC
:208580009C6126EACE3E27CA07C2C021C7B886D11EEBE0CDD67DDAEA78D16EEE7F4F7DF59F
:2085A000BA6F1772AA67F006A698C8A2C57D630AAE0DF9BE04983F111B471C13350B711BF0
:2085C000847D0423F577DB289324C7407BABCA32BCBEC9150ABE9E3C4C0D109CC4671D439A
:2085E000B6423ECBBED4C54C2A7E65FC9C297F59ECFAD63AAB6FCB5F1758474A8C19446CA2
:20860000800800208008002080080020800800208008002080080020200F0020200F0020CC
:20862000EDF40080000000B002000C02D819002080080020D819002080080020200F002058
:2086400058060020200F002058060020200F0020B8120020200F002058060020200F00207A
:2086600058060020070000007C900080080000007C95008015000000CD0B0000FF00010261
:208680000304050606072A8648CE3D0101000000200F002058060020E01A0020200F002080
:2086A00058060020201C0020200F002058060020601D0020200F0020C80B0020B81200204A
:2086C00015000000FFFFFFFFFFFFFFFF00000101010000000000000000010000141C203009
:2086E000401C201C20304020401410002C8700802C870080A4870080B887008000000000FE
:2087000000000000000000000000000109000200030000000B000200030000000001020334
:208720000405060708090A0B0C0D0E0F79DF0080C9E100807DDF00800000000000000000E9
:208740000000000000020200000000000000000000000000010101111113130101000000C8
:20876000000000000000000000000000000000010100000000000000000000001010421085
:208780001030541143000010010000100100240000000000000000FEFE00000000000000AF
:2087A0000000000089EA008015020180B1E50080FFFFFFFF0200000099EA00800D16018073
:2087C00015F00080FFFFFFFF040000001800FFFFFFFF0000FFFFFF00FF0100000000010101
:2087E00000000000000103000104000100010000010500010001000006000206380004F02C
:20880000340004F0200004F0280004F0280004F000000100050000000700000004000000D3
:208820000000000006000000020000000100000021830180B5DF0080C1E10080097D0180CD
:20884000B5770180D9EF008071000180E126018058020020580600200000000000000000B1
:208860000000000000000000000000000000000000000000000000000000000000000000F8
:208880000000000000000000000000000000000100000000000000000000000000000000D7
:2088A0000000000000000000000000000000000207000200030000000100030005000100A0
:2088C00000000400050001000600010002000000EDD3F55C1A631258D69CF7A2DEF9DE14B9
:2088E00000000000000000000000000000000010EDD3F55C1A631258D69CF7A2DEF9DE149C
:2089000000000000000000000000000000000010FEFFFFFFFFFFFFFFFFFFFFFFFFFFFFFF58
:20892000FFFFFFFFFFFFFFFFFFFFFFFFFFFFFF0F000102030405060708090A0B0C0D0E0FBF
:20894000101112131415161718191A1B1C1D1E1F53696745643235353139206E6F20456407
:20896000323535313920636F6C6C6973696F6E73FFFFFFFF31750000FFFFFFFF327500004D
:20898000FFFFFFFF34750000FFFFFFFF35750000A3785913CA4DEB75ABD841414D0A7000C2
:2089A00098E879777940C78C73FE6F2BEE6C0352B0A00E4A271BEEC478E42FAD0618432F1D
:2089C000A7D7FB3D99004D2B0BDFC14F8024832B41DB010000000000000000000000000067
:2089E00000000000000000000000000000000000EDFFFFFFFFFFFFFFFFFFFFFFFFFFFFFF99
:208A0000FFFFFFFFFFFFFFFFFFFFFFFFFFFFFF7F59F1B226949BD6EB56B183829A14E0003A
:208A200030D1F3EEF2808E19E7FCDF56DCD9062453696745643235353139206E6F204564AC
:208A4000323535313920636F6C6C6973696F6E7300000000C6FFFFFFFFFFFFFFC6FFFFFF2F
:208A6000FFFFFFFFC6FFFFFFFFFFFFFFC6FFFFFFFFFFFFFFC65FFAFA1B132C0AA3E59CEDEE
:208A8000A72963085D210621EBFFFFFFFFFFFFFFFFFFFFFFFFFFFFFF0F0000001B132C0AA7
:208AA000A3E59CEDA72963085D210621EBFFFFFFFFFFFFFFFFFFFFFFFFFFFFFF0F000000DA
:208AC000841800200000020000000200A1CE018005DE0180E90C018000000000B9EB0080E8
:208AE0001027000001000000010000000200000004000000080000001000000020000000FF
:208B000040000000800000001B0000003600000014121615171612090900FFFFFFFF1A1874
:208B20001E1AFFFFFFFF1817FFFF1514FFFFFFFFFFFFFFFFFFFFFFFF3027002088930080A5
:208B40000000000000000000C800000012000000000000000000000000000000000000003B
:208B6000010000002A8648CE3D04030455040655040855040755040A5504032A8648CE3D04
:208B800002012B81040022551D13551D0E551D23FD0001801DE00180350101803D6D018088
:208BA000350101803D6D0180FD0001801DE00180FD0001801DE00180FD0001801DE00180DF
:208BC00007000000020000000A00000004000000060000000500000000000000080000006B
:208BE0000100000009000000030000000B0000000700020003000000010003000500010047
:208C0000080003000500010009000300040000000000040005000100060001000200000020
:208C20000E00020002000700020002000100040002000D00040002000C00040002000300E8
:208C40000400020000000400020006000100010005000100010000000E00020002000100E6
:208C6000020002000900030002000A00030002000800020002000B00030002000D000200A8
:208C800002000C00020002000500010001000000080000000307040009000000040705008C
:208CA0000A000000060707000B000000050706000100000002070300040000000007010060
:208CC0000600000001070200070000000A00000008000000580204000002000203170000EF
:208CE000000000000600000009000000070000005802600200020002032D17002700000030
:208D000000000004000000043700010038000101390001023A000103090001050A00010540
:208D200011000004110000043E000104020000040300000401000006040000042E00010675
:208D40000E00020002000400020002000700020002000100040002000D00040002000C00C8
:208D6000040002000800040002000900030003000A000300030000000400020006000100B3
:208D800001000500010001004B65794D43657274696669636174655F4F53534C5F58353036
:208DA000395F45434453415F503338345F43414B65794D43657274696669636174655F4F03
:208DC00053534C5F583530395F45434453415F503338345F494100000300000059D10180A8
:208DE0000603000001D70180080600001D7A01800A080000A97801800B0A00002914018064
:208E00000E0B0000E1870180100E0000698801801210000041F301801312000075B001801E
:208E200015130000A1BE018018150000C5320180000000000100000001000000040000007F
:208E4000000000000400000000000000030000000200000000000000010000000100000007
:208E60000000000000000000010000000000000003000000000000000400000000000000EA
:208E8000050000000000000006000000000000000000000041200180680000000C00000071
:208EA00001000000ED090180240000000400000001000000ED090180240000000400000072
:208EC0000000000041200180680000000C0000000000000041200180680000000C000000E6
:208EE0000000000041200180680000000C00000000000000380000003C0000004000000068
:208F0000B4000000B8000000BC0000003001000034010000380100007001000074010000A4
:208F2000780100000C0000001000000014000000180000001C000000200000002400000010
:208F4000280000002C0000003000000034000000000005F0FFFF05F00100000000000090E0
:208F6000FFFF11900000000000000050FFFFFF7F0000000000000030FFFFFF410000000018
:208F800000000010FFFFFF1F00000000000000B0FFFF11B00100000000000480FFFFFF8034
:208FA00000000000000004A0FFFFFFA000000000000000000100000001000000000100006D
:208FC000000000000002000000000000040300000200000002040000010000000105000079
:208FE000000000000206000001000000020700000300000002080000040000000209000043
:2090000005000000020A000006000000020B0000070000000B000000070000001200000001
:2090200003000000060000000900000012000000080000002F000000200000000B000000AA
:209040002F0000002000000009000000060000001D0000000D000000030000001300000072
:209060000C0000002F00000020000000150000002F000000200000000E000000DC760020B1
:20908000DE7600200000000000000000E0760020E27600200000000000000000E8760020F0
:2090A000EA7600200000000000000000EC760020EE760020000000000000000058060020AC
:2090C000406D00200000000000000000446D0020466D00200000000000000000000000001F
:2090E00000000000000000000000000000000000000000000100000000000000020000006D
:20910000010000000300000001000000040000000100000005000000010000000600000039
:20912000010000000700000001000000080000000000000009000000000000000A0000000B
:20914000010000000B000000000000000C000000000000000D000000000000000E000000DC
:20916000000000000F000000010000001AD5258F602D56C9B2A7259560C72C695CDCD6FDB6
:2091800031E2A4C0FE536ECDD336692158666666666666666666666666666666666666664F
:2091A0006666666666666666666666660100000000000000000000000000000000000000E6
:2091C000000000000000000000000000A3DDB7A5B38ADE6DF5525177809FF0207DE3AB647E
:2091E0008E4EEA6665768BD70F5F8767E958C81E04002C000000460000000000472522423D
:209200000600B4012C00900100010000B66CEB2B0700BC01B401100000020000613CCCB3F6
:209220000800800DBC01CA0B00030000E9F1BEB409006C11800DF203000400007B2B2A09D3
:20924000020060126C111801000501003776863E0500BC1460129A030006010039D2144F34
:2092600003001817BC149A030007010098030000000000000000000000000000200F00205D
:20928000280200000101010101FFFFFFFF0101015806002058030000FFFFFFFFFF01FFFFCD
:2092A000FF02FFFFC80B00204001000002FFFFFFFFFFFFFFFF03FFFFE01A00204001000025
:2092C000FF02FFFFFFFFFFFFFF04FFFF201C002044010000FFFF02FFFFFFFFFFFF05FFFFF4
:2092E000601D002098030000FFFFFFFFFF02FF01FF06FFFFB81200205143018099F300802B
:2093000015FC00807DFA0080E5F8008049F3008021FF0080A1F500800DF3008069EF00809E
:20932000ADF30080C9EF00805148018005F70080790E0180310B018081090180010E0180DF
:2093400079EF0080B104018009F20080AD140180C90E018071070180E115018085F3008072
:20936000D9E1008049E1008051F00080CDF1008069EE0080E1F10080F105018021F30080D6
:2093800041E10080D1E100800000000010004A000000000011004A000000000020001C0107
:2093A0000000000021001C010000000040000400000000004100040000000000C000940191
:2093C00000000000C100940100000000D000140000000000D100140000000000E0009E03ED
:2093E00000000000E1009E0300000000F0009E0300000000F1009E03000000000001CE0BEE
:20940000000000000101CE0B000000001001F603000000001101F6030200FF070200090742
:20942000010A09FF0D0AFF0E0DFF100EFF1110FF1311FF1513011715FF1917011A19FF1BB7
:209440001A061C1BFF1E1C011F1EFF201FFF2220012322FF2523012725052827052D280532
:209460002F2D01312F013231073332FF3533013635FF3B36FF3C3BFF3D3C023E3D053F3E2F
:2094800005403F054240014442014644014846014948FF4B49014C4BFF4F4C05504F0351D1
:2094A00050045251035352035653FF5956FF5A59FF5B5AFF5D5BFF5E5DFF0000590A0180F9
:2094C000C9250180DDA20180E94B0180E5FF008095FE008075FC00801DFA0080A90001803F
:2094E00079FE0080218B018061370180112101800DF80080414B01809D820180398C018004
:20950000BD160180B1240180091E0180FDE700809D720180A91D018091160180D91D01801F
:2095200011060180890101807924018009EE0080B9ED0080E9ED0080D9ED00801901018096
:2095400081660180D92D01801107018089EC008039EC0080B1F40080211101804911018036
:20956000711F018059E90080F1060180D9140180A1400180D1F200806DDF00804C6D0020E8
:209580004E6D00206CCD02806ECD02800000000000000000F0760020F2760020E4D702802D
:2095A000E6D702800000000000000000E4760020E6760020E8D70280EAD7028000000000F2
:2095C000000000001077002012770020ECD70280EED702800000000000000000840100200A
:2095E00058020020B0D6028084D702800000000000000000406D0020426D00207CA00280D2
:209600007EA002800000000000000000486D00204A6D002080A0028082A0028000000000B8
:20962000000000000000000000000000000000000000000000000000000000007FFFFFFFAE
:20964000FFFFFFFFFFFFFFFFFFFFFFFFFFFFFFFFFFFFFFFFFFFFFFFFFFFFFFED0FFFFFFF2C
:20966000FFFFFFFFFFFFFFFFFFFFFFFFFFFFFFFFFFFFFFFFFFFFFFFFFFFFFFFD52036CEE59
:209680002B6FFE738CC740797779E89800700A4D4141D8AB75EB4DCA135978A32B83248027
:2096A0004FC1DF0B2B4D00993DFBD7A72F431806AD2FE478C4EE1B274A0EA0B0590456B41E
:2096C000E53F8A4DCB27240F78310D2021430EEF5F8C52E701DB17FDBE8FD3F4216936D378
:2096E000CD6E53FEC0A4E231FDD6DC5C692CC7609525A7B2C9562D608F25D51A66666666A6
:20970000666666666666666666666666666666666666666666666666666666583081DE3070
:2097200081B1042000000004FFFFFFFDFFFFFFFFFFFFFFFEFFFFFFFBFFFFFFFF00000000EA
:209740000000000304040000000130440420FFFFFFFC000000040000000000000000000068
:209760000003FFFFFFFFFFFFFFFFFFFFFFFC0420DC30061D04874834E5A220ABF7212ED62D
:20978000ACF005CD78843090D89CDF6229C4BDDF04410418905F76A53755C679FB732B771B
:2097A00062251075BA95FC5FEDB60179E730D418A9143C8571FF1825885D85D2E88688DD99
:2097C00021F3258B4AB8E4BA19E45CDDF25357CE95560A3028042066E12D94F3D9562028A2
:2097E00045B2392B6BEC594699799C49BD6FA683244C95BE79EEA20404EE00BC4F000000FF
:209800003081E0020101302C06072A8648CE3D0101022100FFFFFFFF000000010000000025
:209820000000000000000000FFFFFFFFFFFFFFFFFFFFFFFF30440420FFFFFFFF000000019F
:20984000000000000000000000000000FFFFFFFFFFFFFFFFFFFFFFFC04205AC635D8AA3AE2
:2098600093E7B3EBBD55769886BC651D06B0CC53B0F63BCE3C3E27D2604B0441046B17D1AE
:20988000F2E12C4247F8BCE6E563A440F277037D812DEB33A0F4A13945D898C2964FE342D6
:2098A000E2FE1A7F9B8EE7EB4A7C0F9E162BCE33576B315ECECBB6406837BF51F5022100D8
:2098C000FFFFFFFF00000000FFFFFFFFFFFFFFFFBCE6FAADA7179E84F3B9CAC2FC6325515E
:2098E000020101000001140400000000850114040000000023011404000000000002140457
:209900000000000085021404000000002302140400000000000514040000000085051404AC
:209920000000000023051404000000000001140300010000850114030001000023011403F5
:209940000001000000021403000100008502140300010000230214030001000000051403F4
:209960000001000085051403000100002305140300010000000003000002000000000500FA
:20998000000300000000170D01040000001014010005000000101402000600001400830BA3
:2099A000000700000000170700080000050017070008000005001708000900000000170803
:2099C00000090000050017080009000003801908000A0000000000000100000002000000A0
:2099E000030000000400000005000000060000001000000010000000110000001200000012
:209A0000130000001400000015000000160000001700000018000000390000001900000073
:209A20001A0000001B0000001C0000001D0000001E0000001F00000020000000210000003A
:209A40002200000023000000240000002500000026000000270000002800000029000000DA
:209A60002A0000002B0000002C0000002D000000070000002E0000000800000009000000F2
:209A80002F000000310000000A0000000B000000320000000C0000000D0000000E000000F8
:209AA00033000000360000003800000030000000370000003A0000003B0000003D000000EC
:209AC00035000000360000000F0000003C00000052096AD53036A538BF40A39E81F3D7FB6D
:209AE0007CE339829B2FFF87348E4344C4DEE9CB547B9432A6C2233DEE4C950B42FAC34ED9
:209B0000082EA16628D924B2765BA2496D8BD12572F8F66486689816D4A45CCC5D65B6927D
:209B20006C704850FDEDB9DA5E154657A78D9D8490D8AB008CBCD30AF7E45805B8B34506A9
:209B4000D02C1E8FCA3F0F02C1AFBD0301138A6B3A9111414F67DCEA97F2CFCEF0B4E6734D
:209B600096AC7422E7AD3585E2F937E81C75DF6E47F11A711D29C5896FB7620EAA18BE1B5F
:209B8000FC563E4BC6D279209ADBC0FE78CD5AF41FDDA8338807C731B11210592780EC5F77
:209BA00060517FA919B54A0D2DE57A9F93C99CEFA0E03B4DAE2AF5B0C8EBBB3C8353996196
:209BC000172B047EBA77D626E169146355210C7D637C777BF26B6FC53001672BFED7AB76B9
:209BE000CA82C97DFA5947F0ADD4A2AF9CA472C0B7FD9326363FF7CC34A5E5F171D8311522
:209C000004C723C31896059A071280E2EB27B27509832C1A1B6E5AA0523BD6B329E32F8468
:209C200053D100ED20FCB15B6ACBBE394A4C58CFD0EFAAFB434D338545F9027F503C9FA8C4
:209C400051A3408F929D38F5BCB6DA2110FFF3D2CD0C13EC5F974417C4A77E3D645D197308
:209C600060814FDC222A908846EEB814DE5E0BDBE0323A0A4906245CC2D3AC629195E47907
:209C8000E7C8376D8DD54EA96C56F4EA657AAE08BA78252E1CA6B4C6E8DD741F4BBD8B8AAD
:209CA000703EB5664803F60E613557B986C11D9EE1F8981169D98E949B1E87E9CE5528DFAB
:209CC0008CA1890DBFE6426841992D0FB054BB16982F8A4291443771CFFBC0B5A5DBB5E91A
:209CE0005BC25639F111F159A4823F92D55E1CAB98AA07D8015B8312BE853124C37D0C5530
:209D0000745DBE72FEB1DE80A706DC9B74F19BC1C1699BE48647BEEFC69DC10FCCA10C245D
:209D20006F2CE92DAA84744ADCA9B05CDA88F97652513E986DC631A8C82703B0C77F59BF9F
:209D4000F30BE0C64791A7D55163CA0667292914850AB72738211B2EFC6D2C4D130D38531E
:209D600054730A65BB0A6A762EC9C281852C7292A1E8BFA24B661AA8708B4BC2A3516CC78D
:209D800019E892D1240699D685350EF470A06A1016C1A419086C371E4C774827B5BCB0349C
:209DA000B30C1C394AAAD84E4FCA9C5BF36F2E68EE828F746F63A5781478C8840802C78CD6
:209DC000FAFFBE90EB6C50A4F7A3F9BEF27871C64000000007000000170000002000000081
:209DE0000005000000000000030000001400000010000000028500000000000004000000AC
:209E0000140000001000000002850000200000000000000003000000000000000000000074
:209E2000000000000800000019000000200000008003000000000000040000001400000046
:209E40001000000002000000000000000300000014000000100000000200000000000000C7
:209E6000080000001700000020000000000500001000000001000000140000001000000069
:209E800010000000100000000B0000001B0000000000000000000000100000000B00000061
:209EA000830000000000000000140000000000000D000000170000000000000000000000E7
:209EC000040000000B0000001B000000000000000000000000000000080000001700000039
:209EE00020000000B00500004000000000000000050000000000000000000000FFFF00004A
:209F000001020EFFFF0100100204080002000106070B0803000A13010E0B04000A0C01118A
:209F20000E05000A0C01141106000A0C01171407000A0C01FFFF080001170DFFFF09000139
:209F4000170C0B080A000A13080E0B0B000A0C08110E0C000A0C0814110D000A0C08171496
:209F60000E000A0C081E170F00010609231E1000010609FFFF110020030A2926120001045E
:209F8000002C2913000180002623140014060008001500010606FFFF1602400205FFFF00DC
:209FA0000001020EFFFF0100100204080002000106070B0803000A13010E0B04000A0C01FB
:209FC000110E05000A0C01141106000A0C01171407000A0C01FFFF080001170DFFFF090089
:209FE00001170C17140A000A0C080E0B0B000A0C080B080C000A130814110D000A0C081EF6
:20A00000170E00010609231E0F00010609FFFF100020030A2623110014010029261200019F
:20A0200004002C29130001800008001400010606FFFF15024002050089B801806108018002
:20A04000A9200180CDA6018099930180D9AA01806DBF018015C50180E56F018079A7018093
:20A06000552A018081220180A917018085570180C51F0280B9220180E9E10080F1E10080C0
:20A08000F9E1008001E2008009E2008011E2008019E2008051B6018021E20080CD560180FB
:20A0A00029E2008031E2008039E2008075FF00800DF2018041E2008051E200806108018033
:20A0C000A9200180CDA6018099930180D9AA018019E20080B1030180E56F0180FDDF0080B0
:20A0E000552A018081220180A91701808557018049E20080B922018069E10080B1E10080BB
:20A10000B9E1008071E1008099E1008079E1008019E20080F95E018081E100801181018037
:20A12000A1E10080A9E1008091E1008029EF0080D9F0018089E10080059301806108018052
:20A14000A9200180CDA6018061E10080D9AA018019E2008009180180E56F0180D917018098
:20A16000552A018081220180A917018051020180E1680280B922018000000000349E00802D
:20A18000FF000000000000000100000000000000F89D0080FF0000000000000001000000AA
:20A1A00000000000349E0080FF000000370000000100000000000000489E0080FF000000B1
:20A1C0003A0000000100000000000000709E0080FF0000003B00000001000000000000007B
:20A1E0005C9E0080FF0000003D0000000100000000000000209E0080FF000000110000005A
:20A200000100000000000000209E0080FF000000120000000100000000000000F89D0080D8
:20A22000FF000000390000000100000000000000E49D0080FF0000003900000001000000AB
:20A2400000000000849E0080FF0000003C0000000100000000000000C09E0080FF00000043
:20A26000020000000100000000000000D49E0080FF000000030000000100000000000000E6
:20A28000E89E0080FF000000010000000100000000000000D49E0080FF00000004000000C2
:20A2A0000100000000000000AC9E0080FF0000000B000000010000000000000005930180AF
:20A2C00061080180A9200180CDA6018061E10080D9AA018059E1008009180180E56F01805F
:20A2E000D9170180552A018081220180A917018051020180E1680280B9220180000000008D
:20A30000E9E10080F1E10080F9E1008001E2008009E2008011E2008059E1008051B60180C4
:20A3200021E20080CD56018029E2008031E2008039E2008075FF00800DF2018041E2008026
:20A340000100000089B8018061080180A9200180CDA6018099930180D9AA01806DBF0180B4
:20A3600015C50180E56F018079A70180552A018081220180A917018085570180C51F0280E4
:20A38000B92201800000000051E2008061080180A9200180CDA6018099930180D9AA0180D5
:20A3A00059E10080B1030180E56F0180FDDF0080552A018081220180A917018085570180BB
:20A3C00049E20080B92201800000000069E10080B1E10080B9E1008071E1008099E10080B4
:20A3E00079E1008059E10080F95E018081E1008011810180A1E10080A9E1008091E10080FE
:20A4000029EF0080D9F0018089E100803400000000000000327500000400000031750000EB
:20A420000400000033000000000000003200000000000000000000000300000001000000AF
:20A44000030000002A000000000000002C000000000000002F000000000000002E00000046
:20A46000000000002B000000000000002D0000000000000030000000000000003100000023
:20A480000000000015000000000000001B000000000000001D000000000000001F00000050
:20A4A00000000000110000000000000003000000000000000700000000000000130000006E
:20A4C0000000000005000000000000000E0000000000000019000000000000001800000038
:20A4E000000000001C00000000000000120000000000000014000000000000000F0000000B
:20A50000000000002900000000000000020000000000000009000000000000000B000000FC
:20A5200000000000060000000000000024000000000000000D0000000000000000000000E4
:20A5400000000000170000000000000026000000000000001A00000000000000160000008E
:20A56000000000001E0000000000000020000000000000002800000000000000270000004E
:20A58000000000002300000000000000040000000000000022000000000000002100000051
:20A5A0000000000025000000000000003500000002010000357500000400000030750000EB
:20A5C000010000000800000000020000327500000100000034750000040000000A00000011
:20A5E000000200000C00000000020000010000000000000010000000000000003400000006
:20A60000020000003275000000000000317500000000000033000000020000003200000084
:20A6200002000000000000000400000001000000040000002A000000020000002C000000B7
:20A64000020000002F000000020000002E000000020000002B000000020000002D0000003D
:20A66000020000003000000002000000310000000200000015000000020000001B00000041
:20A68000020000001D000000020000001F0000000200000011000000020000000300000062
:20A6A000020000000700000002000000130000000200000005000000020000000E00000065
:20A6C00002000000190000000200000018000000020000001C000000020000001200000013
:20A6E0000200000014000000020000000F0000000200000029000000020000000200000004
:20A700000200000009000000020000000B00000002000000060000000200000024000000F3
:20A72000020000000D000000020000000000000002000000170000000200000026000000C7
:20A74000020000001A0000000200000016000000020000001E000000020000002000000083
:20A7600002000000280000000200000027000000020000002300000002000000040000005B
:20A78000020000002200000002000000210000000200000025000000020000003500000014
:20A7A000020000003575000000000000307500000100000008000000020000003275000096
:20A7C0000100000034750000000000000A000000020000000C0000000200000001000000B4
:20A7E000020000001000000002000000004000E8044000E8084000E80C4000E8104000E855
:20A80000144000E8184000E81C4000E8204000E8244000E8284000E82C4000E8304000E8E8
:20A82000344000E8384000E83C4000E8404000E8444000E8484000E84C4000E8504000E8C8
:20A84000544000E8584000E85C4000E8604000E8644000E8684000E86C4000E8704000E8A8
:20A86000744000E8784000E87C4000E8804000E8844000E8884000E88C4000E8904000E888
:20A88000944000E8984000E89C4000E8A04000E8A44000E8A84000E8AC4000E8B04000E868
:20A8A000B44000E8B84000E8BC4000E8C04000E8C44000E8C84000E8CC4000E8D04000E848
:20A8C000D44000E8D84000E8DC4000E8E04000E8E44000E8E84000E8EC4000E8F04000E828
:20A8E000F44000E8F84000E8FC4000E8004100E8044100E8084100E80C4100E8104100E803
:20A90000144100E8184100E81C4100E8204100E8244100E8284100E82C4100E8304100E8DF
:20A92000344100E8384100E83C4100E8404100E8444100E8484100E84C4100E8504100E8BF
:20A94000544100E8584100E85C4100E8604100E8644100E8684100E86C4100E8704100E89F
:20A96000744100E8784100E87C4100E8804100E8844100E8884100E88C4100E8904100E87F
:20A98000944100E8984100E89C4100E8A04100E8A44100E8A84100E8AC4100E8B04100E85F
:20A9A000B44100E8B84100E8BC4100E8C04100E8C44100E8C84100E8CC4100E8D04100E83F
:20A9C000D44100E8D84100E8DC4100E8E04100E8E44100E8E84100E8EC4100E8F04100E81F
:20A9E000F44100E8F84100E8FC4100E80100100000001000000000000200FFFFFFFF0400D1
:20AA0000000000000300FFFFFFFF200001030000040011001000010000000000C70BFFFF1D
:20AA2000FFFF100000000000C80BFFFFFFFF100000000000CA0B1500110004000100030026
:20AA40000100250015001000010000000200290025000400010000000100FFFFFFFF200038
:20AA6000000000000100FFFFFFFF1000000000000500FFFFFFFF1000000000000600FFFFB4
:20AA8000FFFF3000000000000100FFFFFFFF1000000000000500FFFFFFFF1000000000006A
:20AAA0000100390029001000000303000500490039001000000303000100590049001000CD
:20AAC000000303000000EA015900580203000000CD0BFFFFFFFF100001000000CF0BFFFF12
:20AAE000FFFF20000300000001000A02EA012000010000000300FFFFFFFF14000000000009
:20AB000004000B020A02010000000000E703FFFFFFFFD10000000000C90B1B020B02100052
:20AB200000000000000089031B025802030000000000FFFFFFFFDC05000000000100FFFF33
:20AB4000FFFF2000000000000800FFFFFFFF1000000000000900FFFFFFFF2000000000009E
:20AB60000A00FFFFFFFF2000000000000C008A0389030100000000000200FFFFFFFF040087
:20AB8000010000000100AA038A032000010300000100FFFFFFFF2000010000000100FFFF38
:20ABA000FFFF2000010000000100CA03AA032000000003000100FFFFFFFF200001000000BA
:20ABC0001100CB03CA030100000000000000FFFFFFFFE803030000000100FFFFFFFF2000C1
:20ABE000000000000100EB03CB0320000000000001000B04EB0320000000000001001B043A
:20AC00000B0410000000000005002B041B041000000000000100FFFFFFFF030000000000B2
:20AC2000000000000000000000000000000000000000000000000000000000000000000014
:20AC40000000000000000000000000000000000000000000010000000000000000000000F3
:20AC6000FF000000701600200000000000000000000000000000000000000000000000002F
:20AC8000000000000000000000000000000000000000000028010000400002000200000047
:20ACA000000000027F900000000000000000000051E0008000000000A9EE008000000000BB
:20ACC00041E3008049E30080000000000000000074160020000000005801000020001801E8
:20ACE00018010000000000027FD00000000000000000000079E0008000000000E9EE0080BA
:20AD00000000000061E3008069E3008000000000000000007816002000000000580100009C
:20AD2000E0009A039A030000000000027FD00000000000000000000001E000800000000047
:20AD4000B9EE008000000000F1E20080F9E2008000000000000000007C160020000000006C
:20AD6000F80100001000460046000000000000027FD00000000000000000000069E0008024
:20AD800000000000D9EE00800000000051E3008059E3008000000000000000008016002046
:20ADA0000000000058010000F0009A039A030000000000027FD000000000000000000000BF
:20ADC00021E0008000000000C9EE00800000000001E3008009E300800000000000000000EB
:20ADE0008416002000000000F8010000C000900190010000000000027FD00000000000006D
:20AE00000000000031E000800000000079EE00800000000011E3008019E3008000000000CA
:20AE2000000000008816002000000000F8010000D000100010000000000000027FD000001A
:20AE4000000000000000000041E000800000000089EE00800000000021E3008029E300804A
:20AE600000000000000000008C16002000000000F80100000001CA0BCA0B0000000000026A
:20AE80007FD00000000000000000000049E000800000000099EE00800000000031E300801F
:20AEA00039E3008000000000000000009016002000000000F80100001001F203F20300003C
:20AEC000000000027FD000000100281A181A00000200301A2C1A01000300240004000200EC
:20AEE00004001D171C170300C70B341724170400C80B481738170500CA0B2C0028000600D3
:20AF00000100B000A00007000200B800B4000800010028210821090001006C205C200A00D4
:20AF20000500802070200B000600B42084200C000100F019D01909000100F020E0200D002D
:20AF400005000421F4200E000100141AF41909000100C820B8200F000500DC20CC20100093
:20AF60000100CC00BC0007000200D400D000080001008C187C1811000500A01890181000D4
:20AF80000100E800D80007000200F000EC0008000100B418A41811000000BC146412120011
:20AFA000010084196419090001000401F400070002000C01080108000100D818B818090082
:20AFC0000100A81988190900010020011001070002002801240108000100CC19AC190900BF
:20AFE00001003C012C0107000200440140010800CD0BAC119C111300CF0BD011B01114006A
:20B000000100F411D4111500030060174C1716000400651764171700E7033D186C17180051
:20B02000C90B541844181900CA0B9811941106000100580148010700020060015C010800C0
:20B04000010074016401070002007C017801080000001817C0141A0000001020341A1B0058
:20B060000100900180010700020098019401080001003420142009000100FC18DC181C00C7
:20B080000800101900191D000900341914191E000A00581938191F000C005D195C192000A6
:20B0A00001005820382009000200BC01B801210001001812F811220001003C121C12230027
:20B0C0000100901170112400010040003000070002004800440008000100940084000700FB
:20B0E00002009C009800080001005C004C00070002006400600008000100780068000700AC
:20B10000020080007C00080001007818581809000100AC019C0107000200B401B00108005D
:20B12000010078215821250001006012401226000A004C212C211F001100512150212700EE
:20B140000000A805C001280000006C11840D280000009409AC0528000000800D9809280057
:20B1600001009C217C2129000A00C021A0211F001100C521C42127000100EC21CC21290059
:20B180000A001022F0211F00110015221422270001003C221C222A000100882268222B0077
:20B1A0000100502240222C000500642254222D0001008F228C222E0023E4F53525931FE5E5
:20B1C00001C1AC6817601363010000000100000000000000000000000000000000000000AA
:20B1E0000092122A4C923B39217E1BB0698D691D1B5370657A69616C4569576F6D69736138
:20B2000075000000000000000000000000000000003082018D30820135A0030201020201E6
:20B2200002300F060D2B0601040196640306837D056E30123110300E06035504030C074193
:20B240004130303030313020170D3138303631353133323632315A180F39393939313233E9
:20B26000313232353935395A30123110300E06035504030C07414230303030313034300FB3
:20B28000060D2B0601040196640306837D056E0321001EF132E4C5B30406D1F9E8547E5748
:20B2A000D2A6297F30AFA23AF168E62864F1323205C3A381993081963017060D2B06010437
:20B2C0000196640306837D05650101FF04030401023017060D2B0601040196640306837D5D
:20B2E000056B0101FF0403040100301D0603551D0E0416041480DD4558CC84CC0AC164D5AF
:20B3000018ECA645065B96143630120603551D130101FF040830060101FF020100300E06A2
:20B3200003551D0F0101FF040403020204301F0603551D230418301680145F866BAB6B87A5
:20B3400012ED2CF54770DFCDA1407B96B0AB300F060D2B0601040196640306837D056E031B
:20B36000410090E2553C187BADA41E71C6CADB7B84CAE53ED801990815093CCF62F4CE3CBC
:20B3800081159C7487B4767969FD0B8805699B296D28DBBA14CD0F58331B5AA324803E8E85
:20B3A0004605FBBBF04F786E35276B931358EBED03216EE1F93A955985DDF7BC2088DB8816
:20B3C000C58702000000000000000000000000000000013082016A30820112A00302010294
:20B3E000020101300F060D2B0601040196640306837D056E30123110300E06035504030C18
:20B4000007414130303030313020170D3138303631353133303634335A180F393939393142
:20B420003233313232353935395A30123110300E06035504030C07414130303030313034CC
:20B44000300F060D2B0601040196640306837D056E0321003E4B5B6E49FC41C1E246A4055F
:20B4600095DD8D922D10F31487D8A910F1C0F6250A094FADA37730753017060D2B060104B5
:20B480000196640306837D05650101FF04030401013017060D2B0601040196640306837D9C
:20B4A000056B0101FF0403040100301D0603551D0E041604145F866BAB6B8712ED2CF547B3
:20B4C00070DFCDA1407B96B0AB30120603551D130101FF040830060101FF020101300E06A7
:20B4E00003551D0F0101FF040403020204300F060D2B0601040196640306837D056E034171
:20B50000000B346299EAFFBB0ADCD53C729A28E4996E3B8E50EEA13E1F1E9FE988E8662D89
:20B520000540E0F9F21EBA1D69B671C35B5B23408B356CE522C668B798C2537650EB69C0FB
:20B540000D003F7DD95D1B51A5A242363D646CC73D13CD93B4AF9C0A64E7E13BEB4AC6D3FF
:20B5600069D370069786D8E11BFE62E7913D41E132786F08A9EA75D96070A219F86009F013
:20B58000A62F03F02D5C1510D98FCD5CF4D944D7AC579213ACFDE1955A5712DA91645D9472
:20B5A00025AA62D73EDAAB73225196CA0C7F27E1DBE121206ECA408DBD5219D7B2A1EE6342
:20B5C000E936F792122A4C923B39217E1BB0698D691D1BC69A93C2E5DF1142F0C179101618
:20B5E0001033610023000000230000002E0000002E000000000000002300000023000000BF
:20B600002E0000002E0000000000000023000000230000002E0000002E000000000000002C
:20B620002E0000002E000000000000000B000000230000002D000000010000000200000050
:20B640000A0000002300000022000000010000000200000023000000230000002E00000024
:20B660002F000000010000002E0000002F0000000100000009000000230000002F000000E1
:20B680002F0000000200000023000000230000000A0000002F0000000100000023000000D6
:20B6A000230000000A0000002F000000010000000F0000002F000000010000000C000000E2
:20B6C000230000002E0000002F000000030000000800000004000000280000002F00000084
:20B6E0000500000008000000230000002F0000002F000000040000002F0000002F0000005A
:20B70000080000001A00000018000000180000002F0000000A0000001B0000002300000060
:20B720002E0000002F0000000400000023000000230000001E0000002F000000080000000D
:20B740002F0000002F0000000800000002000000230000002A0000002E0000000500000001
:20B76000030000001C0000002B0000002F0000000600000003000000230000002B000000F9
:20B780002F000000040000001C0000002F00000008000000100000001D00000025000000D1
:20B7A0002F00000004000000230000002300000019000000130000000700000023000000BA
:20B7C000230000002F0000002F000000040000002F0000002F000000040000000C00000076
:20B7E000230000002E0000002F00000007000000080000001E0000002F0000002F0000003E
:20B80000040000002300000023000000250000001F000000040000002F0000002F00000038
:20B82000040000000F0000002300000019000000120000000300000023000000230000005E
:20B84000090000002F000000090000002300000023000000090000002F0000000900000020
:20B86000090000002F000000090000000500000023000000150000002F0000000900000012
:20B880002300000023000000160000000F00000020000000230000002300000016000000C1
:20B8A0000F00000020000000160000000F00000020000000050000002300000014000000D8
:20B8C0002E0000000A00000023000000230000000F0000002F000000200000002300000069
:20B8E000230000002F0000002F000000200000002F0000002F000000200000000500000024
:20B9000023000000210000002E0000000B00000022000000220000002F0000002F00000008
:20B92000200000000400000023000000270000002F0000000C0000002F0000002F00000000
:20B940000D00000002000000230000002A0000002E0000000C00000003000000230000002B
:20B960002B0000002F0000000D00000023000000230000001E0000001000000020000000CC
:20B980002F0000002F000000200000000F00000023000000170000002F0000000E000000A3
:20B9A0001700000023000000100000002F0000002000000023000000230000001100000097
:20B9C0002F000000110000002F0000002F000000200000000C000000230000002E0000004C
:20B9E0002F0000000E0000000F000000080000001A000000170000000F0000000F000000A4
:20BA000023000000110000002F000000100000002F0000002F000000200000000C00000029
:20BA2000230000002E0000002F0000000F0000000800000017000000100000002F00000019
:20BA40002000000008000000230000001A0000001100000010000000110000002F00000020
:20BA6000100000000C000000230000002E0000002F000000100000000800000023000000EF
:20BA80001A000000110000001100000014000000230000001A0000001100000011000000F7
:20BAA000110000002F000000100000000C000000230000002E0000002F0000001100000099
:20BAC0000800000023000000100000002F0000002000000014000000230000001000000095
:20BAE0002F00000020000000110000002F0000001100000005000000230000001500000069
:20BB00002F000000120000002300000023000000160000002F000000200000002300000016
:20BB200023000000160000002F00000020000000160000002F000000200000001200000006
:20BB4000230000002F0000002F0000001300000023000000230000000E0000000C000000F1
:20BB60001400000023000000230000000E0000000C000000140000000E0000000C00000023
:20BB80001400000006000000230000002F0000002F000000200000000E00000023000000B9
:20BBA0002F0000002F000000150000001900000023000000000000002F0000001700000090
:20BBC000000000002F000000160000001F000000200000002C0000002E0000001500000072
:20BBE0001F000000210000002F0000002F0000001600000023000000230000002900000022
:20BC00002F000000190000002F0000002F0000002000000011000000130000001700000023
:20BC20002F0000001C00000011000000230000001D0000000C000000140000001600000032
:20BC400023000000050000002F0000001B000000040000002F0000001A0000001100000014
:20BC6000230000001D0000000C0000001400000015000000230000001F0000000500000008
:20BC80001B00000023000000230000001D0000000C000000140000001D0000000C000000DD
:20BCA000140000000800000023000000260000000C000000140000000F00000023000000CD
:20BCC00019000000170000001C0000002300000023000000260000000C000000140000008C
:20BCE000260000000C0000001400000002000000230000002A0000002E0000001900000068
:20BD000003000000230000000C0000002F0000001400000019000000230000000000000072
:20BD20002F00000017000000000000002F000000160000000C000000190000002300000030
:20BD4000240000001700000012000000230000002F0000002F0000001A00000023000000D8
:20BD6000230000000C0000002F000000140000000C0000002F0000001400000012000000F0
:20BD8000230000002F0000002F0000001B00000023000000230000000C0000002F00000086
:20BDA0001400000023000000230000000C0000002F000000140000000C0000002F0000009F
:20BDC000140000000C00000019000000230000002F000000170000000C0000002300000092
:20BDE0002E0000002F0000001C00000023000000230000002F0000002F000000180000000E
:20BE00002F0000002F0000001800000001000000230000002F0000002F000000200000000A
:20BE200007000000230000002F0000002F0000001F00000000000000230000002000000018
:20BE4000080000001E0000001D0000000D0000001D00000012000000230000002F00000011
:20BE60002F0000001E00000023000000230000000D0000002F0000001D00000023000000B3
:20BE8000230000000D0000002F0000001D0000000D0000002F0000001D00000001000000CC
:20BEA000230000002F0000002F000000200000000D000000230000002E0000002F00000054
:20BEC0001F00000023000000230000002F0000002F000000200000002F0000002F00000021
:20BEE0002000000023000000230000002F0000002F00000020000000230000002300000018
:20BF00002F0000002F0000002000000023000000230000002F0000002F00000020000000DF
:20BF20002F0000002F0000002000000051F4A7507E4165531A17A4C33A275E963BAB6BCBC7
:20BF40001F9D45F1ACFA58AB4BE303932030FA55AD766DF688CC7691F5024C254FE5D7FC93
:20BF6000C52ACBD726354480B562A38FDEB15A4925BA1B6745EA0E985DFEC0E1C32F7502FB
:20BF8000814CF0128D4697A36BD3F9C6038F5FE715929C95BF6D7AEB955259DAD4BE832D2B
:20BFA000587421D349E069298EC9C84475C2896AF48E797899583E6B27B971DDBEE14FB69A
:20BFC000F088AD17C920AC667DCE3AB463DF4A18E51A31829751336062537F45B16477E03B
:20BFE000BB6BAE84FE81A01CF9082B94704868588F45FD1994DE6C87527BF8B7AB73D32397
:20C00000724B02E2E31F8F576655AB2AB2EB28072FB5C20386C57B9AD33708A5302887F2AA
:20C0200023BFA5B202036ABAED16825C8ACF1C2BA779B492F307F2F04E69E2A165DAF4CDA1
:20C040000605BED5D134621FC4A6FE8A342E539DA2F355A0058AE132A4F6EB750B83EC399F
:20C060004060EFAA5E719F06BD6E10513E218AF996DD063DDD3E05AE4DE6BD4691548DB5C4
:20C0800071C45D050406D46F605015FF1998FB24D6BDE997894043CC67D99E77B0E842BD51
:20C0A00007898B88E7195B3879C8EEDBA17C0A477C420FE9F8841EC9000000000980868327
:20C0C000322BED481E1170AC6C5A724EFD0EFFFB0F8538563DAED51E362D39270A0FD964DF
:20C0E000685CA6219B5B54D124362E3A0C0A67B19357E70FB4EE96D21B9B919E80C0C54F87
:20C1000061DC20A25A774B691C121A16E293BA0AC0A02AE53C22E043121B171D0E090D0B84
:20C12000F28BC7AD2DB6A8B9141EA9C857F11985AF75074CEE99DDBBA37F60FDF701269F6F
:20C140005C72F5BC44663BC55BFB7E348B432976CB23C6DCB6EDFC68B8E4F163D731DCCA0C
:20C16000426385101397224084C61120854A247DD2BB3DF8AEF93211C729A16D1D9E2F4BAF
:20C18000DCB230F30D8652EC77C1E3D02BB3166CA970B999119448FA47E96422A8FC8CC4D6
:20C1A000A0F03F1A567D2CD8223390EF87494EC7D938D1C18CCAA2FE98D40B36A6F581CFD5
:20C1C000A57ADE28DAB78E263FADBFA42C3A9DE45078920D6A5FCC9B547E4662F68D13C256
:20C1E00090D8B8E82E39F75E82C3AFF59F5D80BE69D0937C6FD52DA9CF2512B3C8AC993BF5
:20C2000010187DA7E89C636EDB3BBB7BCD2678096E5918F4EC9AB701834F9AA8E6956E654A
:20C22000AAFFE67E21BCCF08EF15E8E6BAE79BD94A6F36CEEA9F09D429B07CD631A4B2AFD2
:20C240002A3F2331C6A5943035A266C0744EBC37FC82CAA6E090D0B033A7D815F104984AC4
:20C2600041ECDAF77FCD500E1791F62F764DD68D43EFB04DCCAA4D54E49604DF9ED1B5E379
:20C280004C6A881BC12C1FB84665517F9D5EEA04018C355DFA877473FB0B412EB3671D5A90
:20C2A00092DBD252E91056336DD647139AD7618C37A10C7A59F8148EEB133C89CEA927EED0
:20C2C000B761C935E11CE5ED7A47B13C9CD2DF5955F2733F1814CE7973C737BF53F7CDEA88
:20C2E0005FFDAA5BDF3D6F147844DB86CAAFF381B968C43E3824342CC2A3405F161DC372E9
:20C30000BCE2250C283C498BFF0D954139A80171080CB3DED8B4E49C6456C1907BCB8461FA
:20C32000D532B670486C5C74D0B857425051F4A7537E4165C31A17A4963A275ECB3BAB6B6F
:20C34000F11F9D45ABACFA58934BE303552030FAF6AD766D9188CC7625F5024CFC4FE5D78F
:20C36000D7C52ACB802635448FB562A349DEB15A6725BA1B9845EA0EE15DFEC002C32F75F7
:20C3800012814CF0A38D4697C66BD3F9E7038F5F9515929CEBBF6D7ADA9552592DD4BE8327
:20C3A000D35874212949E069448EC9C86A75C28978F48E796B99583EDD27B971B6BEE14F96
:20C3C00017F088AD66C920ACB47DCE3A1863DF4A82E51A31609751334562537FE0B1647737
:20C3E00084BB6BAE1CFE81A094F9082B58704868198F45FD8794DE6CB7527BF823AB73D393
:20C40000E2724B0257E31F8F2A6655AB07B2EB28032FB5C29A86C57BA5D33708F2302887A6
:20C42000B223BFA5BA02036A5CED16822B8ACF1C92A779B4F0F307F2A14E69E2CD65DAF49D
:20C44000D50605BE1FD134628AC4A6FE9D342E53A0A2F35532058AE175A4F6EB390B83EC9B
:20C46000AA4060EF065E719F51BD6E10F93E218A3D96DD06AEDD3E05464DE6BDB591548DC0
:20C480000571C45D6F0406D4FF605015241998FB97D6BDE9CC8940437767D99EBDB0E8424D
:20C4A0008807898B38E7195BDB79C8EE47A17C0AE97C420FC9F8841E000000008309808623
:20C4C00048322BEDAC1E11704E6C5A72FBFD0EFF560F85381E3DAED527362D39640A0FD9DB
:20C4E00021685CA6D19B5B543A24362EB10C0A670F9357E7D2B4EE969E1B9B914F80C0C583
:20C50000A261DC20695A774B161C121A0AE293BAE5C0A02A433C22E01D121B170B0E090D80
:20C52000ADF28BC7B92DB6A8C8141EA98557F1194CAF7507BBEE99DDFDA37F609FF701266B
:20C54000BC5C72F5C544663B345BFB7E768B4329DCCB23C668B6EDFC63B8E4F1CAD731DC08
:20C5600010426385401397222084C6117D854A24F8D2BB3D11AEF9326DC729A14B1D9E2FAB
:20C58000F3DCB230EC0D8652D077C1E36C2BB31699A970B9FA1194482247E964C4A8FC8CD2
:20C5A0001AA0F03FD8567D2CEF223390C787494EC1D938D1FE8CCAA23698D40BCFA6F581D1
:20C5C00028A57ADE26DAB78EA43FADBFE42C3A9D0D5078929B6A5FCC62547E46C2F68D1352
:20C5E000E890D8B85E2E39F7F582C3AFBE9F5D807C69D093A96FD52DB3CF25123BC8AC99F1
:20C60000A710187D6EE89C637BDB3BBB09CD2678F46E591801EC9AB7A8834F9A65E6956E46
:20C620007EAAFFE60821BCCFE6EF15E8D9BAE79BCE4A6F36D4EA9F09D629B07CAF31A4B2CE
:20C64000312A3F2330C6A594C035A26637744EBCA6FC82CAB0E090D01533A7D84AF10498C0
:20C66000F741ECDA0E7FCD502F1791F68D764DD64D43EFB054CCAA4DDFE49604E39ED1B575
:20C680001B4C6A88B8C12C1F7F466551049D5EEA5D018C3573FA87742EFB0B415AB3671D8C
:20C6A0005292DBD233E91056136DD6478C9AD7617A37A10C8E59F81489EB133CEECEA927CC
:20C6C00035B761C9EDE11CE53C7A47B1599CD2DF3F55F273791814CEBF73C737EA53F7CD84
:20C6E0005B5FFDAA14DF3D6F867844DB81CAAFF33EB968C42C3824345FC2A34072161DC3E5
:20C700000CBCE2258B283C4941FF0D957139A801DE080CB39CD8B4E4906456C1617BCB84F6
:20C7200070D532B674486C5C42D0B857A75051F465537E41A4C31A175E963A276BCB3BAB6B
:20C7400045F11F9D58ABACFA03934BE3FA5520306DF6AD76769188CC4C25F502D7FC4FE58B
:20C76000CBD7C52A44802635A38FB5625A49DEB11B6725BA0E9845EAC0E15DFE7502C32FF3
:20C78000F012814C97A38D46F9C66BD35FE7038F9C9515927AEBBF6D59DA9552832DD4BE23
:20C7A00021D35874692949E0C8448EC9896A75C27978F48E3E6B995871DD27B94FB6BEE192
:20C7C000AD17F088AC66C9203AB47DCE4A1863DF3182E51A336097517F45625377E0B16433
:20C7E000AE84BB6BA01CFE812B94F90868587048FD198F456C8794DEF8B7527BD323AB738F
:20C8000002E2724B8F57E31FAB2A66552807B2EBC2032FB57B9A86C508A5D33787F23028A2
:20C82000A5B223BF6ABA0203825CED161C2B8ACFB492A779F2F0F307E2A14E69F4CD65DA99
:20C84000BED50605621FD134FE8AC4A6539D342E55A0A2F3E132058AEB75A4F6EC390B8397
:20C86000EFAA40609F065E711051BD6E8AF93E21063D96DD05AEDD3EBD464DE68DB59154BC
:20C880005D0571C4D46F040615FF6050FB241998E997D6BD43CC89409E7767D942BDB0E849
:20C8A0008B8807895B38E719EEDB79C80A47A17C0FE97C421EC9F88400000000868309801F
:20C8C000ED48322B70AC1E11724E6C5AFFFBFD0E38560F85D51E3DAE3927362DD9640A0FD7
:20C8E000A621685C54D19B5B2E3A243667B10C0AE70F935796D2B4EE919E1B9BC54F80C07F
:20C9000020A261DC4B695A771A161C12BA0AE2932AE5C0A0E0433C22171D121B0D0B0E097C
:20C92000C7ADF28BA8B92DB6A9C8141E198557F1074CAF75DDBBEE9960FDA37F269FF70167
:20C94000F5BC5C723BC544667E345BFB29768B43C6DCCB23FC68B6EDF163B8E4DCCAD73104
:20C960008510426322401397112084C6247D854A3DF8D2BB3211AEF9A16DC7292F4B1D9EA7
:20C9800030F3DCB252EC0D86E3D077C1166C2BB3B999A97048FA1194642247E98CC4A8FCCE
:20C9A0003F1AA0F02CD8567D90EF22334EC78749D1C1D938A2FE8CCA0B3698D481CFA6F5CD
:20C9C000DE28A57A8E26DAB7BFA43FAD9DE42C3A920D5078CC9B6A5F4662547E13C2F68D4E
:20C9E000B8E890D8F75E2E39AFF582C380BE9F5D937C69D02DA96FD512B3CF25993BC8ACED
:20CA00007DA71018636EE89CBB7BDB3B7809CD2618F46E59B701EC9A9AA8834F6E65E69542
:20CA2000E67EAAFFCF0821BCE8E6EF159BD9BAE736CE4A6F09D4EA9F7CD629B0B2AF31A4CA
:20CA400023312A3F9430C6A566C035A2BC37744ECAA6FC82D0B0E090D81533A7984AF104BC
:20CA6000DAF741EC500E7FCDF62F1791D68D764DB04D43EF4D54CCAA04DFE496B5E39ED171
:20CA8000881B4C6A1FB8C12C517F4665EA049D5E355D018C7473FA87412EFB0B1D5AB36788
:20CAA000D25292DB5633E91047136DD6618C9AD70C7A37A1148E59F83C89EB1327EECEA9C8
:20CAC000C935B761E5EDE11CB13C7A47DF599CD2733F55F2CE79181437BF73C7CDEA53F780
:20CAE000AA5B5FFD6F14DF3DDB867844F381CAAFC43EB968342C3824405FC2A3C372161DE1
:20CB0000250CBCE2498B283C9541FF0D017139A8B3DE080CE49CD8B4C190645684617BCBF2
:20CB2000B670D5325C74486C5742D0B8F4A750514165537E17A4C31A275E963AAB6BCB3B67
:20CB40009D45F11FFA58ABACE303934B30FA5520766DF6ADCC769188024C25F5E5D7FC4F87
:20CB60002ACBD7C53544802662A38FB5B15A49DEBA1B6725EA0E9845FEC0E15D2F7502C3EF
:20CB80004CF012814697A38DD3F9C66B8F5FE703929C95156D7AEBBF5259DA95BE832DD41F
:20CBA0007421D358E0692949C9C8448EC2896A758E7978F4583E6B99B971DD27E14FB6BE8E
:20CBC00088AD17F020AC66C9CE3AB47DDF4A18631A3182E551336097537F45626477E0B12F
:20CBE0006BAE84BB81A01CFE082B94F94868587045FD198FDE6C87947BF8B75273D323AB8B
:20CC00004B02E2721F8F57E355AB2A66EB2807B2B5C2032FC57B9A863708A5D32887F2309E
:20CC2000BFA5B223036ABA0216825CEDCF1C2B8A79B492A707F2F0F369E2A14EDAF4CD6595
:20CC400005BED50634621FD1A6FE8AC42E539D34F355A0A28AE13205F6EB75A483EC390B93
:20CC600060EFAA40719F065E6E1051BD218AF93EDD063D963E05AEDDE6BD464D548DB591B8
:20CC8000C45D057106D46F045015FF6098FB2419BDE997D64043CC89D99E7767E842BDB045
:20CCA000898B8807195B38E7C8EEDB797C0A47A1420FE97C841EC9F800000000808683091B
:20CCC0002BED48321170AC1E5A724E6C0EFFFBFD8538560FAED51E3D2D3927360FD9640AD3
:20CCE0005CA621685B54D19B362E3A240A67B10C57E70F93EE96D2B49B919E1BC0C54F807B
:20CD0000DC20A261774B695A121A161C93BA0AE2A02AE5C022E0433C1B171D12090D0B0E78
:20CD20008BC7ADF2B6A8B92D1EA9C814F119855775074CAF99DDBBEE7F60FDA301269FF763
:20CD400072F5BC5C663BC544FB7E345B4329768B23C6DCCBEDFC68B6E4F163B831DCCAD700
:20CD60006385104297224013C61120844A247D85BB3DF8D2F93211AE29A16DC79E2F4B1DA3
:20CD8000B230F3DC8652EC0DC1E3D077B3166C2B70B999A99448FA11E9642247FC8CC4A8CA
:20CDA000F03F1AA07D2CD8563390EF22494EC78738D1C1D9CAA2FE8CD40B3698F581CFA6C9
:20CDC0007ADE28A5B78E26DAADBFA43F3A9DE42C78920D505FCC9B6A7E4662548D13C2F64A
:20CDE000D8B8E89039F75E2EC3AFF5825D80BE9FD0937C69D52DA96F2512B3CFAC993BC8E9
:20CE0000187DA7109C636EE83BBB7BDB267809CD5918F46E9AB701EC4F9AA883956E65E63E
:20CE2000FFE67EAABCCF082115E8E6EFE79BD9BA6F36CE4A9F09D4EAB07CD629A4B2AF31C6
:20CE40003F23312AA59430C6A266C0354EBC377482CAA6FC90D0B0E0A7D8153304984AF1B8
:20CE6000ECDAF741CD500E7F91F62F174DD68D76EFB04D43AA4D54CC9604DFE4D1B5E39E6D
:20CE80006A881B4C2C1FB8C165517F465EEA049D8C355D01877473FA0B412EFB671D5AB384
:20CEA000DBD25292105633E9D647136DD7618C9AA10C7A37F8148E59133C89EBA927EECEC4
:20CEC00061C935B71CE5EDE147B13C7AD2DF599CF2733F5514CE7918C737BF73F7CDEA537C
:20CEE000FDAA5B5F3D6F14DF44DB8678AFF381CA68C43EB924342C38A3405FC21DC37216DD
:20CF0000E2250CBC3C498B280D9541FFA80171390CB3DE08B4E49CD856C19064CB84617BEE
:20CF200032B670D56C5C7448B85742D0C66363A5F87C7C84EE777799F67B7B8DFFF2F20D9C
:20CF4000D66B6BBDDE6F6FB191C5C5546030305002010103CE6767A9562B2B7DE7FEFE190B
:20CF6000B5D7D7624DABABE6EC76769A8FCACA451F82829D89C9C940FA7D7D87EFFAFA15FB
:20CF8000B25959EB8E4747C9FBF0F00B41ADADECB3D4D4675FA2A2FD45AFAFEA239C9CBFE7
:20CFA00053A4A4F7E47272969BC0C05B75B7B7C2E1FDFD1C3D9393AE4C26266A6C36365A2A
:20CFC0007E3F3F41F5F7F70283CCCC4F6834345C51A5A5F4D1E5E534F9F1F108E271719301
:20CFE000ABD8D873623131532A15153F0804040C95C7C752462323659DC3C35E301818282E
:20D00000379696A10A05050F2F9A9AB50E070709241212361B80809BDFE2E23DCDEBEB26CF
:20D020004E2727697FB2B2CDEA75759F1209091B1D83839E582C2C74341A1A2E361B1B2D75
:20D04000DC6E6EB2B45A5AEE5BA0A0FBA45252F6763B3B4DB7D6D6617DB3B3CE5229297B6F
:20D06000DDE3E33E5E2F2F7113848497A65353F5B9D1D16800000000C1EDED2C4020206045
:20D08000E3FCFC1F79B1B1C8B65B5BEDD46A6ABE8DCBCB4667BEBED97239394B944A4ADEDA
:20D0A000984C4CD4B05858E885CFCF4ABBD0D06BC5EFEF2A4FAAAAE5EDFBFB16864343C5D2
:20D0C0009A4D4DD766333355118585948A4545CFE9F9F91004020206FE7F7F81A05050F0EC
:20D0E000783C3C44259F9FBA4BA8A8E3A25151F35DA3A3FE804040C0058F8F8A3F9292AD0C
:20D10000219D9DBC70383848F1F5F50463BCBCDF77B6B6C1AFDADA75422121632010103064
:20D12000E5FFFF1AFDF3F30EBFD2D26D81CDCD4C180C0C1426131335C3ECEC2FBE5F5FE1DE
:20D14000359797A2884444CC2E17173993C4C45755A7A7F2FC7E7E827A3D3D47C86464AC61
:20D16000BA5D5DE73219192BE6737395C06060A0198181989E4F4FD1A3DCDC7F44222266BC
:20D18000542A2A7E3B9090AB0B8888838C4646CAC7EEEE296BB8B8D32814143CA7DEDE7901
:20D1A000BC5E5EE2160B0B1DADDBDB76DBE0E03B64323256743A3A4E140A0A1E924949DB84
:20D1C0000C06060A4824246CB85C5CE49FC2C25DBDD3D36E43ACACEFC46262A6399191A8D1
:20D1E000319595A4D3E4E437F279798BD5E7E7328BC8C8436E373759DA6D6DB7018D8D8C75
:20D20000B1D5D5649C4E4ED249A9A9E0D86C6CB4AC5656FAF3F4F407CFEAEA25CA6565AF27
:20D22000F47A7A8E47AEAEE9100808186FBABAD5F07878884A25256F5C2E2E72381C1C24D3
:20D2400057A6A6F173B4B4C797C6C651CBE8E823A1DDDD7CE874749C3E1F1F21964B4BDD7D
:20D2600061BDBDDC0D8B8B860F8A8A85E07070907C3E3E4271B5B5C4CC6666AA904848D843
:20D2800006030305F7F6F6011C0E0E12C26161A36A35355FAE5757F969B9B9D01786869141
:20D2A00099C1C1583A1D1D27279E9EB9D9E1E138EBF8F8132B9898B322111133D26969BB9F
:20D2C000A9D9D970078E8E89339494A72D9B9BB63C1E1E2215878792C9E9E92087CECE4946
:20D2E000AA5555FF50282878A5DFDF7A038C8C8F59A1A1F8098989801A0D0D1765BFBFDA06
:20D30000D7E6E631844242C6D06868B8824141C3299999B05A2D2D771E0F0F117BB0B0CB23
:20D32000A85454FC6DBBBBD62C16163AA5C6636384F87C7C99EE77778DF67B7B0DFFF2F2D3
:20D34000BDD66B6BB1DE6F6F5491C5C55060303003020101A9CE67677D562B2B19E7FEFE07
:20D3600062B5D7D7E64DABAB9AEC7676458FCACA9D1F82824089C9C987FA7D7D15EFFAFAF7
:20D38000EBB25959C98E47470BFBF0F0EC41ADAD67B3D4D4FD5FA2A2EA45AFAFBF239C9CE3
:20D3A000F753A4A496E472725B9BC0C0C275B7B71CE1FDFDAE3D93936A4C26265A6C363626
:20D3C000417E3F3F02F5F7F74F83CCCC5C683434F451A5A534D1E5E508F9F1F193E27171FD
:20D3E00073ABD8D8536231313F2A15150C0804045295C7C7654623235E9DC3C3283018182A
:20D40000A13796960F0A0505B52F9A9A090E0707362412129B1B80803DDFE2E226CDEBEBCB
:20D42000694E2727CD7FB2B29FEA75751B1209099E1D838374582C2C2E341A1A2D361B1B71
:20D44000B2DC6E6EEEB45A5AFB5BA0A0F6A452524D763B3B61B7D6D6CE7DB3B37B5229296B
:20D460003EDDE3E3715E2F2F97138484F5A6535368B9D1D1000000002CC1EDED6040202041
:20D480001FE3FCFCC879B1B1EDB65B5BBED46A6A468DCBCBD967BEBE4B723939DE944A4AD6
:20D4A000D4984C4CE8B058584A85CFCF6BBBD0D02AC5EFEFE54FAAAA16EDFBFBC5864343CE
:20D4C000D79A4D4D5566333394118585CF8A454510E9F9F90604020281FE7F7FF0A05050E8
:20D4E00044783C3CBA259F9FE34BA8A8F3A25151FE5DA3A3C08040408A058F8FAD3F929208
:20D50000BC219D9D4870383804F1F5F5DF63BCBCC177B6B675AFDADA634221213020101060
:20D520001AE5FFFF0EFDF3F36DBFD2D24C81CDCD14180C0C352613132FC3ECECE1BE5F5FDA
:20D54000A2359797CC884444392E17175793C4C4F255A7A782FC7E7E477A3D3DACC864645D
:20D56000E7BA5D5D2B32191995E67373A0C0606098198181D19E4F4F7FA3DCDC66442222B8
:20D580007E542A2AAB3B9090830B8888CA8C464629C7EEEED36BB8B83C28141479A7DEDEFD
:20D5A000E2BC5E5E1D160B0B76ADDBDB3BDBE0E0566432324E743A3A1E140A0ADB92494980
:20D5C0000A0C06066C482424E4B85C5C5D9FC2C26EBDD3D3EF43ACACA6C46262A8399191CD
:20D5E000A431959537D3E4E48BF2797932D5E7E7438BC8C8596E3737B7DA6D6D8C018D8D71
:20D6000064B1D5D5D29C4E4EE049A9A9B4D86C6CFAAC565607F3F4F425CFEAEAAFCA656523
:20D620008EF47A7AE947AEAE18100808D56FBABA88F078786F4A2525725C2E2E24381C1CCF
:20D64000F157A6A6C773B4B45197C6C623CBE8E87CA1DDDD9CE87474213E1F1FDD964B4B79
:20D66000DC61BDBD860D8B8B850F8A8A90E07070427C3E3EC471B5B5AACC6666D89048483F
:20D680000506030301F7F6F6121C0E0EA3C261615F6A3535F9AE5757D069B9B9911786863D
:20D6A0005899C1C1273A1D1DB9279E9E38D9E1E113EBF8F8B32B989833221111BBD269699B
:20D6C00070A9D9D989078E8EA7339494B62D9B9B223C1E1E9215878720C9E9E94987CECE42
:20D6E000FFAA5555785028287AA5DFDF8F038C8CF859A1A180098989171A0D0DDA65BFBF02
:20D7000031D7E6E6C6844242B8D06868C3824141B0299999775A2D2D111E0F0FCB7BB0B01F
:20D72000FCA85454D66DBBBB3A2C161663A5C6637C84F87C7799EE777B8DF67BF20DFFF2CF
:20D740006BBDD66B6FB1DE6FC55491C5305060300103020167A9CE672B7D562BFE19E7FE03
:20D76000D762B5D7ABE64DAB769AEC76CA458FCA829D1F82C94089C97D87FA7DFA15EFFAF3
:20D7800059EBB25947C98E47F00BFBF0ADEC41ADD467B3D4A2FD5FA2AFEA45AF9CBF239CDF
:20D7A000A4F753A47296E472C05B9BC0B7C275B7FD1CE1FD93AE3D93266A4C26365A6C3622
:20D7C0003F417E3FF702F5F7CC4F83CC345C6834A5F451A5E534D1E5F108F9F17193E271F9
:20D7E000D873ABD831536231153F2A15040C0804C75295C723654623C35E9DC31828301826
:20D8000096A13796050F0A059AB52F9A07090E0712362412809B1B80E23DDFE2EB26CDEBC7
:20D8200027694E27B2CD7FB2759FEA75091B1209839E1D832C74582C1A2E341A1B2D361B6D
:20D840006EB2DC6E5AEEB45AA0FB5BA052F6A4523B4D763BD661B7D6B3CE7DB3297B522967
:20D86000E33EDDE32F715E2F8497138453F5A653D168B9D100000000ED2CC1ED206040203D
:20D88000FC1FE3FCB1C879B15BEDB65B6ABED46ACB468DCBBED967BE394B72394ADE944AD2
:20D8A0004CD4984C58E8B058CF4A85CFD06BBBD0EF2AC5EFAAE54FAAFB16EDFB43C58643CA
:20D8C0004DD79A4D335566338594118545CF8A45F910E9F9020604027F81FE7F50F0A050E4
:20D8E0003C44783C9FBA259FA8E34BA851F3A251A3FE5DA340C080408F8A058F92AD3F9204
:20D900009DBC219D38487038F504F1F5BCDF63BCB6C177B6DA75AFDA21634221103020105C
:20D92000FF1AE5FFF30EFDF3D26DBFD2CD4C81CD0C14180C13352613EC2FC3EC5FE1BE5FD6
:20D9400097A2359744CC884417392E17C45793C4A7F255A77E82FC7E3D477A3D64ACC86459
:20D960005DE7BA5D192B32197395E67360A0C060819819814FD19E4FDC7FA3DC22664422B4
:20D980002A7E542A90AB3B9088830B8846CA8C46EE29C7EEB8D36BB8143C2814DE79A7DEF9
:20D9A0005EE2BC5E0B1D160BDB76ADDBE03BDBE0325664323A4E743A0A1E140A49DB92497C
:20D9C000060A0C06246C48245CE4B85CC25D9FC2D36EBDD3ACEF43AC62A6C46291A83991C9
:20D9E00095A43195E437D3E4798BF279E732D5E7C8438BC837596E376DB7DA6D8D8C018D6D
:20DA0000D564B1D54ED29C4EA9E049A96CB4D86C56FAAC56F407F3F4EA25CFEA65AFCA651F
:20DA20007A8EF47AAEE947AE08181008BAD56FBA7888F078256F4A252E725C2E1C24381CCB
:20DA4000A6F157A6B4C773B4C65197C6E823CBE8DD7CA1DD749CE8741F213E1F4BDD964B75
:20DA6000BDDC61BD8B860D8B8A850F8A7090E0703E427C3EB5C471B566AACC6648D890483B
:20DA800003050603F601F7F60E121C0E61A3C261355F6A3557F9AE57B9D069B98691178639
:20DAA000C15899C11D273A1D9EB9279EE138D9E1F813EBF898B32B981133221169BBD26997
:20DAC000D970A9D98E89078E94A733949BB62D9B1E223C1E87921587E920C9E9CE4987CE3E
:20DAE00055FFAA5528785028DF7AA5DF8C8F038CA1F859A1898009890D171A0DBFDA65BFFE
:20DB0000E631D7E642C6844268B8D06841C3824199B029992D775A2D0F111E0FB0CB7BB01B
:20DB200054FCA854BBD66DBB163A2C166363A5C67C7C84F8777799EE7B7B8DF6F2F20DFFCB
:20DB40006B6BBDD66F6FB1DEC5C5549130305060010103026767A9CE2B2B7D56FEFE19E7FF
:20DB6000D7D762B5ABABE64D76769AECCACA458F82829D1FC9C940897D7D87FAFAFA15EFEF
:20DB80005959EBB24747C98EF0F00BFBADADEC41D4D467B3A2A2FD5FAFAFEA459C9CBF23DB
:20DBA000A4A4F753727296E4C0C05B9BB7B7C275FDFD1CE19393AE3D26266A4C36365A6C1E
:20DBC0003F3F417EF7F702F5CCCC4F8334345C68A5A5F451E5E534D1F1F108F9717193E2F5
:20DBE000D8D873AB3131536215153F2A04040C08C7C7529523236546C3C35E9D1818283022
:20DC00009696A13705050F0A9A9AB52F0707090E1212362480809B1BE2E23DDFEBEB26CDC3
:20DC20002727694EB2B2CD7F75759FEA09091B1283839E1D2C2C74581A1A2E341B1B2D3669
:20DC40006E6EB2DC5A5AEEB4A0A0FB5B5252F6A43B3B4D76D6D661B7B3B3CE7D29297B5263
:20DC6000E3E33EDD2F2F715E848497135353F5A6D1D168B900000000EDED2CC12020604039
:20DC8000FCFC1FE3B1B1C8795B5BEDB66A6ABED4CBCB468DBEBED96739394B724A4ADE94CE
:20DCA0004C4CD4985858E8B0CFCF4A85D0D06BBBEFEF2AC5AAAAE54FFBFB16ED4343C586C6
:20DCC0004D4DD79A33335566858594114545CF8AF9F910E9020206047F7F81FE5050F0A0E0
:20DCE0003C3C44789F9FBA25A8A8E34B5151F3A2A3A3FE5D4040C0808F8F8A059292AD3F00
:20DD00009D9DBC2138384870F5F504F1BCBCDF63B6B6C177DADA75AF212163421010302058
:20DD2000FFFF1AE5F3F30EFDD2D26DBFCDCD4C810C0C141813133526ECEC2FC35F5FE1BED2
:20DD40009797A2354444CC881717392EC4C45793A7A7F2557E7E82FC3D3D477A6464ACC855
:20DD60005D5DE7BA19192B32737395E66060A0C0818198194F4FD19EDCDC7FA322226644B0
:20DD80002A2A7E549090AB3B8888830B4646CA8CEEEE29C7B8B8D36B14143C28DEDE79A7F5
:20DDA0005E5EE2BC0B0B1D16DBDB76ADE0E03BDB323256643A3A4E740A0A1E144949DB9278
:20DDC00006060A0C24246C485C5CE4B8C2C25D9FD3D36EBDACACEF436262A6C49191A839C5
:20DDE0009595A431E4E437D379798BF2E7E732D5C8C8438B3737596E6D6DB7DA8D8D8C0169
:20DE0000D5D564B14E4ED29CA9A9E0496C6CB4D85656FAACF4F407F3EAEA25CF6565AFCA1B
:20DE20007A7A8EF4AEAEE94708081810BABAD56F787888F025256F4A2E2E725C1C1C2438C7
:20DE4000A6A6F157B4B4C773C6C65197E8E823CBDDDD7CA174749CE81F1F213E4B4BDD9671
:20DE6000BDBDDC618B8B860D8A8A850F707090E03E3E427CB5B5C4716666AACC4848D89037
:20DE800003030506F6F601F70E0E121C6161A3C235355F6A5757F9AEB9B9D0698686911735
:20DEA000C1C158991D1D273A9E9EB927E1E138D9F8F813EB9898B32B111133226969BBD293
:20DEC000D9D970A98E8E89079494A7339B9BB62D1E1E223C87879215E9E920C9CECE49873A
:20DEE0005555FFAA28287850DFDF7AA58C8C8F03A1A1F859898980090D0D171ABFBFDA65FA
:20DF0000E6E631D74242C6846868B8D04141C3829999B0292D2D775A0F0F111EB0B0CB7B17
:20DF20005454FCA8BBBBD66D16163A2C0000000001000A0040000120704700007047000070
:20DF4000704700007047000070470000704700007047000070470000704700007047000009
:20DF60007047000070470000704700007047000070470000704700007047000070470000E9
:20DF80007047000070470000704700007047000070470000704700007047000070470000C9
:20DFA0007047000001607047FFF7DEBF01F086BB0CF090BA06F034BB1CF0A2B81CF0A2B8D6
:20DFC00011F0F6BA0CF02EBC0BF02AB80CF02ABC0BF026B80DF078BD0DF098BB0DF074BD62
:20DFE0000DF094BB0DF070BD0DF090BB0DF06CBD0DF08CBB04F04CBDFAF732B80CF0BCBBAE
:20E0000000200BF05DBA0000002008F06FB80000002210207047000000280446704700005D
:20E0200001200BF04DBA0000012008F05FB8000002200BF045BA0000022103F075BC00002A
:20E0400003200BF03DBA000004200BF039BA000005200BF035BA0000007800287047000033
:20E06000007801287047000006200BF029BA000004460D467047000007200BF021BA0000F3
:20E0800006432E70704700000298406A704700000A460146704700000798007870470000CB
:20E0A000202101F007BC0000202101F003BC0000206A002870470000284621467047000085
:20E0C0002846224670470000304600F0DFBF0000403005F0D7B80000404621467047000017
:20E0E00040466946704700004078022870470000407C002870470000484604F015BC0000AD
:20E10000497E0329704700004FF00000704700004FF00000704700004FF000007047000073
:20E120004FF00000704700004FF00000704700004FF00000704700004FF000007047000007
:20E140004FF00000704700004FF00000704700004FF00000704700004FF0010070470000E6
:20E160004FF00100704700004FF00100704700004FF00100704700004FF0010070470000C3
:20E180004FF00100704700004FF00100704700004FF00100704700004FF0010070470000A3
:20E1A0004FF00100704700004FF00100704700004FF00100704700004FF001007047000083
:20E1C0004FF00100704700004FF00100704700004FF00100704700004FF001007047000063
:20E1E0004FF00100704700004FF00100704700004FF00100704700004FF001007047000043
:20E200004FF00100704700004FF00100704700004FF00100704700004FF001007047000022
:20E220004FF00100704700004FF00100704700004FF00100704700004FF001007047000002
:20E240004FF00100704700004FF00100704700004FF00100704700004FF0030070470000E0
:20E26000606A002870470000A168384670470000C168002970470000C17C0229704700008F
:20E28000E060009970470000E268002A70470000E26800F023BA0000C089801E80B27047DC
:20E2A0001C2006FB00907047C989891E89B2704700F5C87004F0E6BF0A9890F83400704714
:20E2C000029890F8340070470DF11200009070470021142002F06CB9C5F3080000287047CF
:20E2E00040F21C402844704740F21C6129447047014600200FF00CBE0146002010F0B6B895
:20E30000014601200FF004BE0146012010F0AEB8014602200FF0FCBD0146022010F0A6B81E
:20E32000014603200FF0F4BD0146032010F09EB8014604200FF0ECBD0146042010F096B837
:20E34000014605200FF0E4BD0146052010F08EB8014606200FF0DCBD0146062010F086B84F
:20E36000014607200FF0D4BD0146072010F07EB85FF06841086070474FF06C40008A7047B8
:20E380000846114602F008BF00216D2002F010B900216E2002F00CB9A068FF260028704744
:20E3A0000021722002F004B90021722002F000B90021722002F0FCB841F4404181807047D6
:20E3C0004068007CAE2870470499FF20087070470A2082F8690A7047C089001F80B2704782
:20E3E00006B900252846704705B90026304670479DF8104000947047002085F8790A7047FC
:20E40000002088F800007047C989091F89B27047069AFF2111707047002818BF012070476A
:20E4200053F8213002A97047079821464A467047606A00680028704704FB0030FFF72CBF70
:20E4400006FB0040FFF728BF5FEA104001F03EBA6169206903AA704794F8440000287047B6
:20E4600005984146224670474068407C0028704746F2AF3100F032B900284FF00104704700
:20E4800094F8790A0028704700B5A847206800BD00B500F0E3F9056800BD000000B504F051
:20E4A000D7FC044300BD000000B50FF0ADF8044300BD000000B500F059F9012000BD000053
:20E4C00000B5FFF705FE002000BD000000B501F0DFFF002200BD000000B500F0E5FE00289E
:20E4E00000BD000000B500F0E9FE002800BD000000B504F055FA002800BD000000B504F068
:20E500004FFA002800BD000000B500F0A7F9002800BD000000B502F063FD002800BD0000B7
:20E5200000B503F0C9FB002800BD000000B50CF045FD002800BD000000B502F0A3F9002847
:20E5400000BD000000B511F069FF002800BD000000B5FFF761FF002800BD000000B509F05D
:20E560009BFA024600BD000000B500F07DF9006800BD000000B51BF0C3FD404600BD0000FE
:20E580000D200321002201F085BA000000B5002111F084FC00BD000094F8340010F0020FF3
:20E5A000704700000023009301930293704700000A780270497841707047000004460E4653
:20E5C0000025012770470000042C18BF7047022670470000002818BF704705267047000002
:20E5E00004432946062001F0C1BD00000023009338460222704700000023009338461A462D
:20E600007047000010B5C4680069A04710BD000010B544680069A04710BD000010B58468F6
:20E620000069A04710BD000010B504680069A04710BD0000006C4068007903287047000000
:20E64000286C4068007CAF2870470000056045608560C56070470000204639462A4607F05D
:20E6600067BA0000009821462A46334670470000086048608860C8607047000008604860F3
:20E680008860C86070470000484651462A463B46704700002068006CC0F303207047000065
:20E6A0000068002180F82C1070470000029B10464354491C70470000204651464A4602F041
:20E6C000C1BD0000096891F83710002970470000086C4068407C002870470000206C4068B0
:20E6E000407C05287047000040F2EC00CFF60600704700004188008850EA01407047000057
:20E700004FF60060CFF6FF70704700004FF60061CFF6FF717047000000B5E08900F0ECF8E5
:20E72000421800BD0148416805297047E01600200149097801297047336D0020014989682E
:20E7400000297047E016002010200490181D19780029704700B500216D2001F029FF00BD20
:20E7600002460B461520002101F022BF02460B465C20002101F01CBF00B5022208F0CAF942
:20E78000002800BD00B51A4603F0A4FB002800BD00B5202103F09EFB002800BD00B50446A2
:20E7A0001BF0AEFC204600BD00B50BF01FFA0028054600BD00B503F08DFB0028297800BDD2
:20E7C00000B50BF013FA0028804600BD074689465FF0010B002570470149002002F028BC3E
:20E7E0003C960080014A052114F07ABBC0180020014A0A2114F074BB08180020014881680A
:20E8000004F0A0BE8C190020014C2068006B70478C19002001480068006B70478C1900208D
:20E82000384641460DF1060301AA7047D0F1010038BF002008717047014D28687047C046C6
:20E8400054160020014944207047C04620AC0080014A1C217047C046C88C008001480068AD
:20E860007047C04654160020014800687047C04658160020014800887047C0461C6D00201E
:20E88000014800887047C046E0160020014801887047C046E0160020014909687047C046B7
:20E8A0005416002000B500686169A269A84700BD062040F22541402204F0CABA02200090E6
:20E8C000204602AB01AA7047054689461746002601247047002808BF70470120207070473C
:20E8E00003460A46106CC1683E297047009501952B462A4621467047001F014980B2704740
:20E90000782200200A6042684A60806888607047181D1B78A268002BE16870472046494606
:20E9200032462B46FFF700BC095C507850EA0120C0B27047019800240844796A0860704780
