:0200000480007A
:20000000043B00200D5E0080E95A0080E95A0080E95A0080E95A0080E95A0080E95A008004
:20002000E95A0080E95A0080E95A0080DF590080E95A0080E95A0080E95A0080E95A0080B3
:20004000A15A0080A15A0080A15A008001600080A15A0080A15A0080A15A0080A15A008062
:20006000A15A0080A15A0080A15A0080A15A0080A15A0080A15A0080A15A0080A15A0080A8
:20008000A15A0080A15A0080A15A0080A15A0080A15A0080A15A0080A15A0080A15A008088
:2000A000A15A0080A15A0080A15A0080A15A0080A15A0080A15A0080A15A0080A15A008068
:2000C000A15A0080A15A0080A15A0080A15A0080A15A0080A15A0080A15A0080A15A008048
:20080000A15A0080DFF810D004485FF0E021C1F8080D05F0FBFA70470437002000000080C0
:20082000DFF800F039050020DFF800F03D0A0020DFF800F061080020DFF800F0610B0020C2
:20084000DFF800F0D5060020DFF800F051040020DFF800F0F1130020DFF800F02909002096
:20086000DFF800F0D5060020DFF800F051040020DFF800F051040020DFF800F01D07002033
:18088000DFF800F0D5060020DFF800F051040020DFF800F03D0400203A
:200904004D4F4455736A253E07000000BC090080070000002C0A0080000000000100000054
:200924000000000000000000000000000000000100C00200000000000080008000000000F0
:200944005645435F4550505F48534D0000000001000102030405060708090A0B0C0D0E0FB1
:200964005370657A69616C4569576F6D69736175541C00200C2C0020000000000000000020
:20098400000000000000000000000000000000000100000002000000040000000800000044
:2009A400100000002000000040000000800000001B00000036000000D0320020D2320020AC
:2009C4000000000000000000D4320020D63200200000000000000000DC320020DE32002067
:2009E4000000000000000000E0320020E232002000000000000000000C2C0020BA3000202B
:200A04000000000000000000C0300020C230002000000000000000000000000000000000B0
:200A24000000000000000000C8300020CA3000206C5E00806E5E00800000000000000000EA
:200A4400E4320020E6320020705E0080725E00800000000000000000D8320020DA32002030
:200A6400745E0080765E0080000000000000000084010020541C002090390080605400801A
:200A84000000000000000000BC300020BE300020883900808A3900800000000000000000B4
:200AA400C4300020C63000208C3900808E390080000000000000000000000000000000007C
:200AC400000000000000000000000000000000000000190132021AC64BC71B6833EEDF034C
:200AE4006404E00E348D81EF4C7108C8F8691CC17DC21DB5F9B9276A4DE4A6729AC909781F
:200B0400652F8A05210FE12412F082453593DA8E968FDBBD36D0CE94135CD2F140468338E8
:200B240066DDFD30BF068B62B325E298228891107E6E48C3A3B61E423A6B2854FA853DBAAB
:200B44002B790A159B9F5ECA4ED4ACE5F373A757AF58A850F4EAD6744FAEE9D5E7E6ADE811
:200B64002CD7757AEB160BF559CB5FB09CA951A07F0CF66F17C449ECD8431F2DA4767BB762
:200B8400CCBB3E5AFB60B1863B52A16CAA55299D97B2879061BEDCFCBC95CFCD373F5BD15B
:200BA4005339843C41A26D47142A9E5D56F2D3AB441192D923202E89B47CB8267799E3A5EF
:200BC400674AEDDEC531FE180D638C80C0F770070103050F113355FF1A2E7296A1F81335FE
:200BE4005FE13848D87395A4F702060A1E2266AAE5345CE43759EB266ABED97090ABE63197
:200C040053F5040C143C44CC4FD168B8D36EB2CD4CD467A9E03B4DD762A6F1081828788868
:200C2400839EB9D06BBDDC7F8198B3CE49DB769AB5C457F9103050F00B1D2769BBD661A31F
:200C4400FE192B7D8792ADEC2F7193AEE92060A0FB163A4ED26DB7C25DE73256FA153F4189
:200C6400C35EE23D47C940C05BED2C749CBFDA759FBAD564ACEF2A7E829DBCDF7A8E8980EE
:200C84009BB6C158E82365AFEA256FB1C843C554FC1F2163A5F407091B2D7799B0CB46CA49
:200CA40045CF4ADE798B8691A8E33E42C651F30E12365AEE297B8D8C8F8A8594A7F20D177A
:200CC400394BDD7C8497A2FD1C246CB4C752F60152096AD53036A538BF40A39E81F3D7FBA6
:200CE4007CE339829B2FFF87348E4344C4DEE9CB547B9432A6C2233DEE4C950B42FAC34E63
:200D0400082EA16628D924B2765BA2496D8BD12572F8F66486689816D4A45CCC5D65B69207
:200D24006C704850FDEDB9DA5E154657A78D9D8490D8AB008CBCD30AF7E45805B8B3450633
:200D4400D02C1E8FCA3F0F02C1AFBD0301138A6B3A9111414F67DCEA97F2CFCEF0B4E673D7
:200D640096AC7422E7AD3585E2F937E81C75DF6E47F11A711D29C5896FB7620EAA18BE1BE9
:200D8400FC563E4BC6D279209ADBC0FE78CD5AF41FDDA8338807C731B11210592780EC5F01
:200DA40060517FA919B54A0D2DE57A9F93C99CEFA0E03B4DAE2AF5B0C8EBBB3C8353996120
:200DC400172B047EBA77D626E169146355210C7D637C777BF26B6FC53001672BFED7AB7643
:200DE400CA82C97DFA5947F0ADD4A2AF9CA472C0B7FD9326363FF7CC34A5E5F171D83115AC
:200E040004C723C31896059A071280E2EB27B27509832C1A1B6E5AA0523BD6B329E32F84F2
:200E240053D100ED20FCB15B6ACBBE394A4C58CFD0EFAAFB434D338545F9027F503C9FA84E
:200E440051A3408F929D38F5BCB6DA2110FFF3D2CD0C13EC5F974417C4A77E3D645D197392
:200E640060814FDC222A908846EEB814DE5E0BDBE0323A0A4906245CC2D3AC629195E47991
:200E8400E7C8376D8DD54EA96C56F4EA657AAE08BA78252E1CA6B4C6E8DD741F4BBD8B8A37
:200EA400703EB5664803F60E613557B986C11D9EE1F8981169D98E949B1E87E9CE5528DF35
:200EC4008CA1890DBFE6426841992D0FB054BB160001000070470000FEE7000001F096BD30
:200EE400FFF7F8BFFFF79ABC0120FFF7F5BF00004FF00100704700004FF07F0181807047BC
:200F040041F44041818070470D200321002200F01BB9000000200090A0692A467047000048
:200F2400029B10464354491C704700000148C0687047C0462C2C0020014880687047C04673
:200F44002C2C0020014800F023B9C046E82C0020014800F01DB9C046E42C002005430096A3
:200F6400241D23460422704730B500F057F8FFF759FC00F06FF930BD30B500F04FF8FFF720
:200F840055FC00F067F930BD024A02604FF0040008607047E02C0020024A02604FF0040092
:200FA40008607047E42C0020024A02604FF0040008607047E82C002000220068884238BF4F
:200FC40042F202021046704700B521460122002001F0F0FA002800BD00281FBF1028202823
:200FE400F72070470020704700B54DF8043D002300F060FF01B000BD00B50F2000F0B0FAAF
:201004005DF804EB07F0AAB800B5002000F0A8FA01205DF804EB00F0A3BA000000B5044617
:201024008E46154680B2194672462B4600BD00000498019950F82A0041F82A000AF1010AF5
:201044007047000000B5012B86460CBF4FF0FF32D2430846714600BD30B504460B4680B264
:2010640011461A46FFF7E6FB00F0F4F830BD000040F23801CFF204010968014081420CBFA4
:20108400012000207047000010B4002303E0D45C5B1C00F8014B8B42F9D310BC7047000083
:2010A40001704FEA112242704FEA114282704FEA1161C170704700000178427841EA02210B
:2010C400827841EA0241C07841EA00607047000010B404E0521E835C8C5C63408354002AA7
:2010E400F8D110BC7047000000B5FFF7F3FE00F05DF802490020086000BDC0460C2C0020D1
:2011040010B942F20300704701607F21818082600021C1600846704710B503461446FFF78B
:201124004BFF00B110BD1846214600F077F810BD00B5FFF787FF48F22033CEF6B85300F075
:20114400F9F96FEA000000BD00B500200DF8040D04F08AF99DF800000028FBD001B000BD2B
:2011640010B5044C206808B904F07EF92068401C206010BD0C2C0020044A1021491E12F829
:20118400013B00F8013BF9D17047C046EC2C0020017842784FEA016141EA02418278C078AE
:2011A40041EA022141EA0000704700004FF0000040F24001CFF2040108604AF20401CEF21A
:2011C400080108607047000040F23402CFF2040211684FF0010303FA00F041EA000111606E
:2011E4007047000000B500F5847021B90021102201F04CFD00BD102202F014F900BD000084
:2012040010B5144600B905E0FFF7D6FE00280CBF002C10BD42F2030010BD00000022808829
:2012240010F4FC538B4202D110F4804F01D142F2010210467047000000B50449044810224E
:2012440000F0EEF9401E18BF012000BD44090080D02C002000B54FF0010538B92046FFF770
:20126400EDFAA0B2FFF7EEFA00B90025284600BD4169054A02EB01128169044850F83100A2
:2012840011689268FFF7E8BE34090080E45B0080012111FA00F240F23403CFF204031B68EC
:2012A400134011FA00F0834208BF00210846704770B504460B461646002506E004EB85008F
:2012C40053F82510FFF7ECFE6D1CB542F6D370BD30B50446FFF702FE054604F58C7010229D
:2012E400002101F0D3FC0020C4F80401284630BD30B543F6C064C8F20D04FFF765FE4FF028
:20130400FF3502D0FFF760FE00D12546284630BD00B58E460199002818BF002B00D011B9F1
:2013240042F2030000BD11467246FFF7F5FE00BD00B501F00BF8FFF7D7FE04F093F800F01D
:20134400E5FB0C20022140F23132FFF7FDFE002000BD000010B5FFF7CBFF0024B0F1FF3F6F
:2013640007D000F07DFE012803D0FFF765FF00B90124204610BD000012F01F0F00D102E0DD
:2013840032F01F0220320844AA2302E000F8013B491C9142FAD310467047000070B5034605
:2013A4000C461646002506E004EB8500FFF784FE43F825006D1CB5EB960FF5D370BD000061
:2013C40000B50320FFF78CFD05480078012802D1FFF780FD01E0FFF70FFE002000BDC046B7
:2013E400B430002030B50125039C1CB9FFF7C4FD054607E0012C05D1084611461A46FFF77F
:2014040043FE0025284630BD10B5FFF7A3FF4FF0010438B104484078012802D100F054F940
:2014240000B90024204610BDB430002030B51C46039B002523B9234600F0A4F9054605E088
:20144400012B03D11046FFF701FA2070284630BD00B507480168002908BF00BD0168491E6C
:2014640001600068002818BF00BD03F0FFFF00BD0C2C002010B40022064B04E013F8014B6B
:201484008454521CD2B20C68A242F7D3002010BC7047C0465409008000B5064900204870FA
:2014A400054988600120FFF71BFD0F205DF804EBFFF78ABEB43000201C2C002070B5054636
:2014C4009DF810409DF81460084611461A46FFF797FE002818BF70BD28462146324600F021
:2014E400B3F970BD10B508480124407818B10020FFF7CEFE28B9FFF787FDFFF785FF00B9E4
:201504000024204610BDC046B430002000B5024610204DF8040D6946054800F091FE20B98F
:201524000098102801D1002000E0012001B000BD382E002010B50EE011F8014B624008241A
:201544005FEA520E12F0010F14BF8EEA03027246641EF5D1401E0028EED1104610BD000014
:2015640010B5044640F23401CFF204010868012212FA04F2904308602046FFF789FE002850
:2015840018BF10BD2046FFF71FFE10BD70B50446FFF7FEFD084E30600546FFF7D9FC2818C1
:2015A400B060201DFFF7F4FD70600446FFF7D0FC0444F46070BDC0462C2C002070B400228A
:2015C4000121094B08E0D1F11005445DEE5C344404EB22224255491C1029F4D9C17B01EB12
:2015E4002221C17370BC70472409008010B5044601460948042200F013F801284FF00100AF
:2016040018BF10BD04F10800FFF7C2FD034988600020C86010BDC046040900801C2C00202C
:2016240070B401230DF8043D8DF8013000231C460AE005780E78B54214BF8DF800308DF8EC
:201644000140491C401C521E002AF2D19DF801001DF8040B70BC704730B581B005460A48D7
:2016640041790A480078814214BF01240024684600F0A8F830B99DF80010012908BF84F0D2
:2016840001042C7001B030BDE45B0080D40E0080F0B504460E46154600B115B942F203078B
:2016A40010E020465FF498525FF49671FFF734FD074600B106E004F1100029463246A36837
:2016C400FFF792FC3846F0BD30B500244DF8084D0B48FFF75DFD054601A8FFF7BDFF68B94A
:2016E4009DF80400694600F0F3FC38B9009928462246FFF7FDFB401E18BF012002B030BD7C
:20170400E02C002030B503460D469646002414E0586800EB0410816871450DD101684068D7
:20172400421A09D0814207D241F8045B586800EB041040688142F7D3641C18688442E7D3C8
:2017440030BD0000F0B504460D4600B115B942F2030614E020465FF498525FF49671FFF7B3
:20176400DBFC064600B10AE004F1100738462946A26800F0FDF820463946FFF7BDFB3046B6
:20178400F0BD000070B504468E461E4680B211467246FFF75FF84FF0010580B92046FFF789
:2017A4005DF8A0B2FFF75EF808B9357006E0A0B2FFF75CF8062802D10020307000252846F6
:2017C40070BD000030B5044604204DF8080D00200146024601ABFFF74DF8C5B275B90020D0
:2017E400FFF74CF80020FFF74DF830B9019801280CBF01200020207000E00125284602B0E3
:2018040030BD000000B50D494FF0010088604FF00002CA600A490B480A60806800F16000F0
:2018240048608A60FFF782FB0346FFF785FBA3EB0003CB600A614A618A6100BD1C2C0020FE
:20184400542C00203409008000230370012A06D0022A08D0042A04D042F2040303E020222A
:2018640000E01022027031B1012906D0042908D042F2040309E0017806E0017851F00101BA
:2018840002E0017851F00401017018467047000000B50020FFF71EFB0020FFF71BFB0021EC
:2018A4000B480A46FFF72EFF0A48002100F09AFA0020FFF70FFB0020FFF70CFB0020FFF714
:2018C40009FB0020FFF706FB5DF804EBFFF730BD0C09008014090080F0B50F4800273E46E9
:2018E40085680E4CDFF838E012E060690EEB0010816802686068431A602B04D3E368114470
:201904001844884201D3012704E01C34761CF6B2AE42EAD33846F0BD1C2C0020542C002053
:20192400340900802DE9F04105460E461746DDF81C809DF8180085F828010024C5F80441B9
:2019440010F00F0009D0012818BF042801D0F72403E028461946FFF745FC34B928463146CA
:201964003A46434601F052F804462046BDE8F0812DE9F04181B004460E46904600F584757F
:20198400D4F804712046294600F034FB102F03D2E85D90F08000E855CDF80080204629465E
:2019A4000123102200F086FA054604F58C713046102201F037FD284601B0BDE8F08100001A
:2019C40070B5C2B004460E4601A900234020401E41F8043BFBD141960125009502F1100367
:2019E400324601A90020FFF7FDFC01280BD000940648314641AB01AA00F092F918B9419899
:201A0400B04208BF0025284642B070BD382E00202DE9F04782B007468A4690461E46DDF826
:201A24002C909DF8284014F0F000FFF7D5FA054698B90094CDF80490384651464246334691
:201A4400FFF770FF054640B997F8280110F00F0004281CBF384600F035FC284602B0BDE8A7
:201A6400F0870000F0B504460D46164610B942F203071FE020465FF49671FFF79DFA0746AD
:201A840000B117E016B942F2030713E0102D02D042F20E070EE004F1100528463146A3685A
:201AA4001022FFF715FCC4F83C5120465FF49851FFF726FA3846F0BDF0B505460F4613461F
:201AC4000022114C1CE005EB820653F8220045F82200002111E05FEAC10E501A10F00300AC
:201AE40057F8200030FA0EF0C0B2005D10FA0EFE306890EA0E003060491C0429EBDB521CF0
:201B0400042AE0DBF0BDC046D40C008010B5FFF7E9F9FFF7C1FC00F0A5F84FF0000400B9EC
:201B24000124FFF7DFFC70B90220FFF7D9F900F06DF801284FF0000405D001F015FA0128D9
:201B440018BFFFF73DFC0120FFF7CAF914B900F089F810B9FFF750FA01E0FFF7C5F9FEE7E0
:201B6400F0B505460F4613460022114C1CE005EB820653F8220045F82200002111E05FEAA9
:201B8400C10E501810F0030057F8200030FA0EF0C0B2005D10FA0EFE306890EA0E003060DB
:201BA400491C0429EBDB521C042AE0DBF0BDC046D40D0080F0B583B004460E46089D002122
:201BC4008DF8081000920193014633465FF4967202A8FFF773FC0746A0B99DF80800009041
:201BE400A068019004F1100031462B461022FFF70FFF28B920465FF48071FFF781F901E049
:201C040042F20807384603B0F0BD000010B581B013484178012902D10024047014E00121EA
:201C24000170FEF733FE044600208DF800005FF00040FFF71DFA8DF800006846FFF74AF912
:201C44009DF800000028F2D000F058FE00B91CB10120FFF741F90124204601B010BDC046D5
:201C6400B430002030B581B06846FFF7F5FC04464FF0000290B99DF800100D480D4D50F841
:201C840031000D494B6855F833303BB9896800F091FC01284FF0010208BF144622B124B9B8
:201CA40006490120487000E00124204601B030BDE45B00801C09008034090080B4300020CA
:201CC400F0B416461A4600231D4628B1102805D0202810D0F6231EE00D461CE002E0505C18
:201CE40000B101E0491EFAD1505C802801D0F62311E00D460FE0481E105C884201D9F6231C
:201D040009E00D1A2C4604E0175D874218BFF623641C8C42F8D303B935601846F0BC704701
:201D24002DE9F04384B00746894690461C460B9E009613465FF496725FF48071FFF7E8FABF
:201D4400054600B118E014B942F2030514E02068039003A8009000200190B868029007F1DD
:201D6400100041464A46334600F0ECFEF8280EBF42F2070503982060284604B0BDE8F08363
:201D84002DE9F04381B004460D4616469846DDF8209094F8280110F00F00012803D004287D
:201DA4000AD0002718E0CDF80090204629463246434600F0B3F812E0CDF800902046294644
:201DC4003246434600F0E0F809E0E919F21920464B4600F04FFB1037B7EB081FF5D301B086
:201DE400BDE8F083F0B504460E46002529E06168D5EB850001EBC0015FEAC0070869B04228
:201E04001ED148680A68801A1AD0CA688968521A904205D05FF4947204210520FFF794F9CD
:201E24006068C119C0598A684968884208D252F8041B40F8041B6168394449688842F6D352
:201E44006D1C20688542D2D3F0BD000030B584B01649054649680020A942154C0ED807E0A7
:201E6400226810216846FFF7ABFD2168103121602168A94214D20028F2D011E0FFF768F881
:201E8400206000F08FFC09E0226810216846FFF797FD21681031A942216001D20028F3D073
:201EA40021688D4218BF012004B030BD1C2C0020202C00202DE9F04F80468B461646DDF83C
:201EC40024A000273D4613B9D8F804411DE001253C461AE008F58C71102C07D140460A462C
:201EE400534600F02FF9002425460EE0D4F11009B14528BFB14608190BEB07014A46FFF759
:201F0400E7F84C444F44B6EB0906002EE2D1012DE0D0C8F804410020BDE8F08F2DE9F04FAE
:201F240084B08246894617461E46DDF834B000F58475002421E009EB0408414610226846DE
:201F440001F070FA3A19504641465B4600F092FA0020EE460EE02B462A4604EB00083946FC
:201F640011F808101B5C594007F8081010F80E101154401C1028EED31034B4EB061FDAD380
:201F840004B0BDE8F08F00002DE9F04F84B082460F4616469846DDF834B000F584750024BA
:201FA40022E0504629465B466A4600F0CBF804F11009B8F1010F05D1DAF8040110F00F0F80
:201FC40000D000E0484621466A4607E00B1B9B5C17F801E093EA0E037354491C8142F5D36F
:201FE4002846FFF7EBFA4C46B4EB081FD9D304B0BDE8F08F70B504460E461546084610221A
:20200400002100F043FE2046314632462B4600F099F8D4F8040110280CBF012502250024DE
:202024001BE0307810F08000002308E0F15C5FEA41015A1CB25C51EAE211F1545B1C0F2BEE
:20204400F4DBF118F25C5FEA4202F25418B1087890F087000870641CE4B2AC42E1DB70BDCE
:2020640070B501264DF8046DB0F140042346102212490020FFF7B6F905460096103423462C
:2020840004220F490020FFF7ADF9FEF767FF0D490020FFF7A7F9FEF761FF0B490020FFF7DC
:2020A400A1F900960949231D054310220020FFF799F955EA000001B070BDC046D02C0020F9
:2020C400E02C0020E42C0020E82C0020EC2C00202DE9F04782B00D4600273946164E06EB67
:2020E400C006DFF858A0DFF858803C461CE0DAF808103068002200F05DFAA0B90094D8F872
:20210400003030684033042201A9FFF76BF90746D5F8009001A8FFF73BF8814503D201A896
:20212400FFF736F82860012109B9002FDFD0384602B0BDE8F087C046E45B0080340900805F
:202144003C090080F0B588B004461646D4F80001001F5FEA50052D1D10226846FFF71EF972
:2021640000206A4607E052F8201054F82030594042F82010401C0428F5D300270BE02246C1
:20218400694604A800F02AFE1034224604A9684600F024FE7F1C1034AF42F0D32246694605
:2021A40004A800F01BFE04F1100204A96846FFF7D7FC304604226946FFF77AF808B0F0BD23
:2021C40070B58CB000256846056045608560C560FEF7B2FE194C6268801A5FEA10100128B3
:2021E40026D910216846FFF7EBFB00281ED16068103060606846FFF7F9F9C8B92E460FE0C8
:202204006268202104A8FFF7DBFB38B9314604A800F080F90546606820306060761CF6B25D
:20222400A068864206D2002DEAD003E0012501E0FFF7E8FA28460CB070BDC0461C2C002084
:202244002DE9F04184B005460C461646002818BF002C00D016B942F203072EE028465FF42F
:2022640080725FF49671FEF757FF074600B124E02068039003A8009001200190A868029017
:2022840005F11008404633460022114600F05AFCF82802D142F207070FE0F52802D142F226
:2022A40008070AE0F62802D142F20C0705E00398206028464146FEF71FFE384604B0BDE80B
:2022C400F0810000F0B50446D4F800015FEA80001830042336E054F8235035F080325FEAA0
:2022E400D51131F0FE31D1EB810101EBC10191EA420636F080325FEAD61131F0FE31D1EBE1
:20230400810101EBC10191EA420131F080325FEAD11737F0FE37D7EB870707EBC70797EADA
:20232400420797EA050591EA050296EA050E4E407E4096EA3E2696EA324696EA356644F831
:2023440023605B1C8342C6D3F0BD000030B400201E4C20701F4C4FF0FF0282F31188EFF3DB
:20236400118284F80020FF20194D28700020012111FA00F2237812EA030301D02A7002E0E4
:20238400401C0828F4DB2878FF2800D1FEE7124CD4F8002082F311885FF0E020406810F012
:2023A4000F005FEA4010203020700020217851B14EF20042CEF2000229788154401CC0B24E
:2023C40021788842F8DB30BC7047C046B7300020B6300020B7300020B63000202DE9F04FAB
:2023E40082B004468A46164601930B9F5FF001080025AB46D4F80401F8B1D0F11005AE4245
:2024040038BF354604F58C7909EB000051462A4601F008F8D4F804012844C4F80401102826
:2024240002D25FF0000808E00C98009020464946019A0123B8475FF0100BB8F1010F16D194
:20244400701B5FEA10180C9800900AEB0501019A5A4420464346B84705EB0815721BC4F8D0
:20246400042104F58C700AEB050100F0DBFF02B0BDE8F08F2DE9F04388B080469146D8F8B5
:2024840000015FEA0012503208EB0207021F5FEA52052D1D5FEA8004143410226846FEF769
:2024A4007DFF00226E460AE05FEA820156F822003B4610315958484046F82200521C042AA9
:2024C400F2D300260FE03A46694604A800F048FE241F08EB840204A9684600F041FE241F84
:2024E40008EB8407761CAE42EDD33A46694604A800F036FE241F08EB840204A96846FFF70C
:20250400DBFA484604226946FEF7D2FE08B0BDE8F083000070B581B004461C22224B01FBA3
:202524000235FEF735FE2860201DFEF731FE686004F10800FEF72CFEA86004F10C00FEF76D
:2025440027FEE86004F11000FEF722FE28610126164CA0686968814205D3226810448142C9
:202564003CBF00266E616846FFF776F8B8B9296871B99DF80000A861686904EB00146168EE
:202584000B4850F8310001280CBF0120002006E0012904D19DF8001091F00101A96156EADF
:2025A400000001B070BDC046542C0020340900801C0900802DE9F04183B0254B0F465C781E
:2025C4001E78904656EA04269C78DB7856EA044656EA03668DF804605FEA26268DF805601F
:2025E4005FEA26268DF806605FEA26268DF8076000920A4602AB20210546FEF717FF4FF071
:20260400010400BB9DF80800E8B9CDF8008028463B46042201A9FEF7E5FE04220D4901A8B7
:20262400FEF7FEFF01280ED1CDF8008007F12002284602AB2021FEF7F9FE20B99DF808403F
:20264400641E18BF0124204603B0BDE8F081C046145C0080080900802DE9F041002405468C
:202664004DF8084D6969214EA869214F06EB011157F830008A68202101ABFEF7D7FE0028A7
:202684004FF001082ED19DF8040001282AD1194919480B46641C042C10F8012B03F8012B13
:2026A400F8DB0A1D0020641CA4B2202C02F8010BF9DB6A69A86906EB021257F8300093689D
:2026C4002022FEF751FC01280CD06969A86906EB0116B16857F830000022FFF76BFF08B9A7
:2026E4005FF00008404602B0BDE8F08134090080E45B00808C2C002008090080F0B582B075
:20270400044661692148226800EB011085680126203531462AB942681D4850F8320000B9AD
:20272400002111B91B4900204870FEF7F3FB1A4F01AB57F830002021FEF778FE18BB9DF8E3
:20274400040001281ED1154915480B460422521E10F801EB6FEA0E0E03F801EBF7D1A06996
:202764002B4657F830002022FEF7FEFBFEF7D2FB57F8300001AB2021FEF758FE18B99DF856
:20278400040000B90026304602B0F0BD340900801C090080B4300020E45B00808C2C002080
:2027A400080900802DE9F04190B0102405942648026806A90A6042684A6082688A60C068EF
:2027C400C86005A901A8FEF755FE00284FF0010535D11E4F002238465FF49671FEF790FCD3
:2027E40000282CD106A8009038462A46022301A9FFF7E0F9002822D100260AA806604660E7
:202804008660C6600E95A846FEF7A2FB00952246034630460AA9FEF7E5FD01280BD00FA884
:202824000090384621460EAB0AAAFFF779FA10B90E9800B9B046B8F1000F08BF35462846C3
:2028440010B0BDE8F081C04664090080382E00202DE9F04F85B08246DAF80440DAF80C508F
:202864000026B3460127DFF88C90B04629E0B5F5807FDAF81810204850F831000ED900218F
:202884000091494623465FF48072FEF7ABFD04F580745FF48071B5F5807509E0CDF80080CB
:2028A40049462A462346FEF79DFD2C4429464546060006D148465A463B46FEF739FC834634
:2028C40000270DB1002ED2D0DAF8100040B901A8FEF71CFE20B901A8FEF75AFCCAF810000D
:2028E400DAF81000834518BF0126304605B0BDE8F08FC046382D0020E45B00802DE9F04746
:202904008AB0FEF725FB8046FEF71CFB5FF01009CDF814900646002406A8046044608460B7
:20292400C4605FF0010A01A805A95546FEF7A2FD012829D0344F224638465FF496715FEA61
:202944001616FEF7DDFB00281ED13846494601AAFFF788F8C0B92546544612E000944346A8
:20296400102206A90020FEF73DFD0546384606AA1021FEF78DFE10B908F1100800E0012519
:20298400761E0EB1002DE9D0012D38D000200190029001A902A8FEF7F7FA1B4D029A0199A9
:2029A4002846FEF775FE4FF00104B0B901A902A8FEF7F2FA029A01992846FEF769FE60B942
:2029C40001A902A8FEF7F0FA029A01992846FEF75FFE002814BF0124002484B9284601A931
:2029E400FEF7B0FE58B905A8FEF7C6FB102201A905A8FEF715FE012808BF4FF0000A50465C
:202A04000AB0BDE8F087C046742F00202DE9F04F86460D4610465FF0000B11B95FF0FF0BCC
:202A240089E010281CBF1828202802D05FF0F80B81E05FEA9000CEF8000100210FE015F84C
:202A4400213005EB8102547864F31F23947853EA0443D27853EA02634EF82130491C81420E
:202A6400EDD35FEA800101F11803B3FBF0F30B22B3FBF2F402FB04F29B1A7246091F525837
:202A840000242E4E2E4F54E05FEA3225EAB231468A5C5FEA1521C9B2715C92EA01225FEA99
:202AA4001541C9B2715C92EA014206EB1561097892EA016257F824104A40002536E0042D75
:202AC40008BF082825D15FEAC40808F1040111F03F095FFA82FA314611F80A105FEA122AB5
:202AE4005FFA8AFA16F80AA091EA0A2A5FEA1241C9B2715C9AEA014106EB1262127891EA7A
:202B040002615EF829204A4008F10C0111F03F0109E000FB04F101EB05085EF8288092EA92
:202B24000802014429444EF821206D1C8542C6D3641C9C42A8D35846BDE8F08FD40D008069
:202B4400940900802DE9F04F83B004460F4615469B46DDF83880002600F582700290D4F8F9
:202B640004311A449DF834A0BAF1000F0DD094F8280110F00F01042902D110F0F00F04D026
:202B840012B112F00F0F00D0F526002E78D11AB1501E30F00F0901E05FF000090C98006836
:202BA400484538BFF826002E6AD1002D30D0102A0CD804F58C70184439462A4600F032FC5D
:202BC400D4F804012844C4F8040121E012F00F0F14D12D480090CDF8048020463946103D6D
:202BE4002A465B46FFF7FAFB04F58C707919102200F018FC1020C4F8040109E02248009044
:202C0400CDF80480204639462A465B46FFF7E6FBBAF1000F31D0CDF80080204604F58C753A
:202C240029462A460123FFF7ABF894F8280110F00F01042902D110F0F00F07D010F0F00069
:202C4400029A2B461021FFF73BF80646C6B9D4F8042109EB02010C980068884201D2F8268F
:202C64000EE00BEB0900294600F0DCFBD4F8040181440C98C0F8009002E00C98C0F80090DD
:202C8400304603B0BDE8F08F851D0080F0B5202A0C460346104645D200F1FF301E2800F272
:202CA4009B80DFE810F03D003C003B003A0039003800370036003500340033003200310063
:202CC40030002F002E002D002C002B002A0029002800270026002500240023002200210068
:202CE40020001F009C775C771C77DC769C765C761C76DC759C755C751C75DC749C745C745C
:202D04001C74DC739C735C731C73DC729C725C721C72DC719C715C711C71DC709C705C70D3
:202D24001C70F0BD13F00701D1F1040111F003010BD0012906D0022903D0032900D002E0C8
:202D44009C705C701C700B44401A00265FEA046151EA044151EA042121431A461D1D03F1BC
:202D6400080703F10C0E361D1038102842F8101B45F8101B47F8101B4EF8101BF3D200F101
:202D8400FF320E2A28D8DFE812F01800180018001500150015001500120012001200120019
:202DA4000F000F000F000F0043F82610761C43F82610761C43F82610761C10F0030001289E
:202DC40003EB860106D0022803D0032818BFF0BD8C704C7003F82640F0BD00002DE9F04FDD
:202DE40084B081468846154600245C4EDFF870B15C4FDE46BA46ABE058F82400C0B231462E
:202E0400085C0090020001D1002008E010465549405CE628ACBFE63819305149405C0AB975
:202E2400002107E04F49515CFE290CBF0021491C11F80B1050EA022050EA024050EA016032
:202E44000090601C10F0030058F820005FEA1020C0B23146085C0190010001D1002207E0BC
:202E64000846C05DFE280CBF0020401C10F80E2009B9002008E0084610F80A00E628ACBF9D
:202E8400E6381930364BC05C52EA002252EA014252EA01620192A01C10F0030058F82000EC
:202EA4005FEA1040C0B23146085C0290010001D1002208E008462B4A805CFE280CBF002009
:202EC400401C274A825C09B9002007E02548085CE628ACBFE6381930214BC05C51EA0222E2
:202EE40052EA004252EA01620292E01C10F0030058F8200006EB106000780390000001D170
:202F0400002207E01749415CFE290CBF0021491C134A8A5C08B9002107E01249415CE6291C
:202F2400ACBFE63919310E4BC95C50EA002050EA024050EA016103910098019A5040029AD6
:202F44005040484055F82410484049F82400641C042CFFF651AF04B0BDE8F08FD40D008009
:202F6400D40B0080D40A00802DE9F04F8AB0754C5FF48070206001263546FDF7E9FF60603F
:202F8400FFF710FC01280DD06F4F626838461021FEF716FD30B96068103060603846FEF7C2
:202FA400F5FA00253DB9FFF70BF9012803D0FEF793FC00B90026019600208346624FABE0EE
:202FC400E160624A08461C2100FB0120FFF796FB01284FF00100019000F09C80E0685B4ADF
:202FE4001C2100FB0120FEF743F9012800F09280E068564A1C2100FB0129D9F804A0D9F888
:203004000850FDF799FF2818D9F80C60FEF71EFF3DE0B6F5807F62680ED938465FF48071FF
:20302400FEF7CEFC804660685FF4807500F580706060B6F580761CE016F00F0F07D138463B
:203044003146FEF7BDFC61683546314408E036F00F05384610352946FEF7B2FC6168294461
:2030640061608046384631462A46FEF785F905460026B8F1000F0BD1D9F818E03448394624
:2030840050F83E002A465346FDF76EFFAA44804616B1B8F1000FBCD0B8F1010F3AD0E06872
:2030A4002A491C2200FB0210FFF7D2FB012831D0E06826491C2200FB021502AA0821491E1E
:2030C40042F804BBFBD1A168491E884208D102A9204A0420401E12F8013B01F8013BF9D138
:2030E4006A691D49A86901EB02118B681849403351F83000202202A9FDF736FF012809D02B
:20310400E06812491C2200FB0210FFF7A5FA08B9002001900098401C00900146A068814220
:2031240003D2019800283FF44BAF019830B10020FDF7D2FE0948407800B9FEE701980AB070
:20314400BDE8F08F1C2C0020382D0020542C0020E45B0080E02C002034090080B43000200E
:203164002DE9F04F86B001900F4600920022AA4BAA4CAB4D2646AE46A34646E157F8220062
:20318400C0B21946085C02905FEA000902D15FF0000807E04846005D2028ACBF2038DF30FC
:2031A40010F80580B9F1000F02D15FF0000A07E04846805D3828ACBF3838C73010F80EA05F
:2031C400B9F1000F01D1002108E0484610F80B001128ACBF1138EE309149415CB9F1000F7B
:2031E40001D100200AE08D4819F800009728ACBF97386830DFF8289210F8090058EA0A2862
:2032040058EA014151EA00600290D01C10F0030057F820005FEA1020C0B21946085C03905A
:203224005FEA000902D15FF0000809E048467B49405C9728ACBF97386830794910F801805B
:20324400B9F1000F02D15FF0000A09E048467349405C2028ACBF2038DF30714910F801A039
:20326400B9F1000F01D1002108E049466B48085C3828ACBF3838C7306949415CB9F1000FD6
:2032840001D100200AE0654819F800001128ACBF1138EE30DFF8889110F8090058EA0A2810
:2032A40058EA014151EA00600390901C10F0030057F820005FEA1040C0B21946085C0490D8
:2032C4005FEA000902D15FF0000809E048465349405C1128ACBF1138EE30514910F8018091
:2032E400B9F1000F02D15FF0000A09E048464B49405C9728ACBF97386830494910F801A072
:20330400B9F1000F01D1002108E049464348085C2028ACBF2038DF304149415CB9F1000F9D
:2033240001D100200AE03D4819F800003828ACBF3838C730DFF8E89010F8090058EA0A2811
:2033440058EA014151EA00600490501C10F0030057F8200003EB1060007805905FEA00091B
:2033640002D15FF0000809E048462C49405C3828ACBF3838C7302A4910F80180B9F1000FB0
:2033840002D15FF0000A09E048462449405C1128ACBF1138EE30224910F801A0B9F1000FA5
:2033A40001D1002108E049461C48085C9728ACBF973868301A49415CB9F1000F01D100209B
:2033C4000AE0164819F800002028ACBF2038DF30DFF84C9010F8090058EA0A2858EA0141BA
:2033E40051EA006105910298DDF80C8090EA0800DDF8108090EA08004840009951F8221097
:203404004840019941F82200521C042AFFF6B6AE06B0BDE8F08FC046D40C0080D40A008098
:20342400D40B00802DE9F04F87B0202A04910190104680F0A38000F1FF301E2800F29982D1
:20344400DFE810F0970093008F008B00870083007F007B00770073006F006B0067006300CB
:203464005F005B00570053004F004B00470043003F003B00370033002F002B002700230038
:203484001F000846807F0199887704980199407F487704980199007F087704980199C07EC7
:2034A400C87604980199807E887604980199407E487604980199007E087604980199C07D41
:2034C400C87504980199807D887504980199407D487504980199007D087504980199C07C29
:2034E400C87404980199807C887404980199407C487404980199007C087404980199C07B11
:20350400C87304980199807B887304980199407B487304980199007B087304980199C07AF8
:20352400C87204980199807A887204980199407A487204980199007A087204980199C079E0
:20354400C87104980199807988710498019940794871049801990079087104980199C078C8
:20356400C870049801998078887004980199407848700498019900780870FAE111F0070139
:20358400D1F1040111F0030119D001290CD0022906D0032900D00BE0049A019B92789A7036
:2035A400049A019B52785A70049A019B12781A70049A401A0A440492019A0A4401920199F9
:2035C40011F00701D1F1040111F00301069159D1DDF810E0019B00900EF104060EF108054B
:2035E4000EF10C0403F1080103F10C001A1D5FF0000A5EF8107B56F810BB55F8109B54F8ED
:20360400108B43F8107B42F810BB41F8109B40F8108B0AF1040A009F103F102F0097E8D202
:2036240007F1FF300E2800F2A481DFE810F01500150015001300130013001300110011009E
:20364400110011000F000F000F000F00FDF7F0FCFDF7EEFCFDF7ECFC17F00302012A01989E
:20366400049900EB8A0001EB8A0108D0022A04D0032A00D07DE18A7882704A7842700978A1
:20368400017076E10021202803910090019AC0F00781001F00900698049A0228126807D098
:2036A400032800D009E00198012102705FEA122201984254491C5FEA1222019842545FEAEF
:2036C40012200290491C0198069A411800200190012003900498059100F1040B00F1080596
:2036E40000F10C06103001F1040801F108090C31032A31D10746DDF814E08A46029B5BF840
:20370400104B55F8102B53EA04235FEA146456F8100B62F31F245FEA126257F8101B60F312
:203724001F225FEA106061F31F205FEA116102914EF8103B48F8104B49F8102B4AF8100BA5
:203744000198001D01900398001D03900098103810280090D2D264E0022A31D10746DDF8F3
:2037640014E08A46029B5BF8104B55F8102B53EA04435FEA144456F8100B62F31F445FEA1F
:20378400124257F8101B60F31F425FEA104061F31F405FEA114102914EF8103B48F8104BFD
:2037A40049F8102B4AF8100B0198001D01900398001D03900098103810280090D2D230E03E
:2037C4000746DDF814E08A46029C5BF8103B55F8102B54EA03645FEA132356F8100B53EA71
:2037E40002635FEA122257F8101B52EA00625FEA102050EA01605FEA112102914EF8104B08
:2038040048F8103B49F8102B4AF8100B0198001D01900398001D0390009810381028009006
:20382400D2D2069803995FEAC00E0498019A00EB81000599DEF1200501EB820113E050F8B0
:20384400042B029B12FA05F432FA0EF22343029241F8043B019A521C0192039A521C0392B9
:20386400009A121F0092009A042AE8D2059A0198002102EB80020698D0F10400022808D038
:20388400032800D00AE00298012110705FEA10200290FDF745FB5FEA13200290FDF740FB87
:2038A4000A440498039900EB8100009901F1FF311E295ED8DFE811F05B00590057005500B2
:2038C400530051004F004D004B00490047004500430041003F003D003B00390037003500A4
:2038E400330031002F002D002B00290027002500230021001F00817F9177417F5177017FF1
:203904001177C17ED176817E9176417E5176017E1176C17DD175817D9175417D5175017D79
:203924001175C17CD174817C9174417C5174017C1174C17BD173817B9173417B5173017B79
:203944001173C17AD172817A9172417A5172017A1172C179D1718179917141795171017979
:203964001171C178D17081789170417851700078107007B0BDE8F08F000000000000000000
:203984000000000000000000000000004FF0000070470000054601467047000068600124F7
:2039A40000007047206B10F0010F70475FF02F40206070472768606A0F4439467047000023
:2039C4002246014C2B4670473519002010B5014CA04710BD7904002006F1FF361830062E8D
:2039E40027467047014981627047C04685010020014981627047C0466507002000B5A047FD
:203A0400E86A0069002800BDE86A6A6AC0680244019270472046014C7047C046DD010020B6
:203A2400014981627047C04689070020014981627047C046AD07002000B5014CA04700BD84
:203A440055140080014981627047C046C9110020014981627047C046A10B002001498162B2
:203A64007047C046D1070020014981627047C046F5070020014981627047C046190800205C
:203A8400014901607047C04685010020014901607047C046490E0020014901607047C046CD
:203AA400FD0D0020014901607047C046990F0020014901607047C046AD0A002001490160BE
:203AC4007047C046250B0020014901607047C046E10B002010B5014CA04710BDED1400207A
:203AE40010B5014CA04710BDFD19002010B5014CA04710BD2117002010B5014CA04710BDE2
:203B04007D13002010B5014CA04710BD5103002010B5014CA04710BD9D12002010B5014C10
:203B2400A04710BDC9040020014908607047C046142C002045F25453CFF205031A60704739
:203B44004AF65821CFF205010860704745F25451CFF2050108607047014800687047C04692
:203B6400AC2C002010B5014CA04710BD7518002080204AF6A821CFF2050108607047000047
:203B840002494FF0000008707047C046B9300020024A282100FB01207047C0462C1C002083
:203BA40030B5024D044600F003F830BDE90A002000B5A8470148A06200BDC046AD0A00200F
:203BC40030B5024D0446FFF7F3FF30BDC905002030B5024D0446FFF7EBFF30BDF51500202B
:203BE40030B50446A56A2046A8470128FAD030BD00B5024C0020A04700BDC046AD090020AB
:203C04005FF02F4240F2C003CFF204031A6070475FF02F4040F2C001CFF20401086070475C
:203C240085E80300C5F808902C61EF602C7770475FF02F4121604AF65021CFF20501086065
:203C4400704700004FF0010040F22801CFF2040108604FF000007047034A4FF0180100FB4A
:203C6400012040687047C0463C2C002010B502498163024CA04710BD410700202D12002075
:203C840030B5034CA56B2046A8470028FAD030BDFC2C002000B504462088024DA847012852
:203CA400E06000BDA10C00205FF02F4040F2C004CFF204042060FA20FFF748BFC5F81880CD
:203CC4001820024908FB001080897047F81B002030B5034C2568A8470028FBD030BDC046C1
:203CE400142C0020034842680A60006A48604FF000007047AC2C0020002908BF70472046F4
:203D04006C600024AC60EC602C702C617047000030B504462088FFF73BFF017E827E038A64
:203D240001F028F830BD000030B504462088FFF72FFF817D428A436801F01CF830BD00001F
:203D440010B5034C0020A047024CA04710BDC046090300205106002030B5034D0446A8472B
:203D64000248A06230BDC04609050020490E002030B5034D0446A8470248A06230BDC046AE
:203D840021050020FD0D002030B5034D0446A8470248A06230BDC046F5150020990F002010
:203DA40030B5034D0446A8470248A06230BDC046C9050020250B002030B5034D0446A847A6
:203DC4000248A06230BDC046C9050020E10B002030B50546E86810B900F088FB01E000F019
:203DE4002DF8FFF729FE30BD62F30101036851F0020119600168096811F001018A42F9D19E
:203E04007047000030B500F043F906E01A6A954204BF88B230BD2833491C8142F6D330BD72
:203E240030B5054D04462C30A847012020600020A061A062206330BD7902002000B5044CDE
:203E4400A047288A034CA047E86AE968416000BD65110080090A002010B5044CA047044C19
:203E6400A04704490020087010BDC046410F002079030020B830002030B5044D0446A8471C
:203E84000348A0632046034CA04730BDD90E0080491000201906002000B5054CA0470549ED
:203EA400182008FB001568684FF00104012800BD651100803C2C002030B500F0E9F809E097
:203EC400DA68954204D39A6895429CBF88B230BD2833491C8142F3D330BD000030B505462D
:203EE400044CA047044CA047044CA8B2A0470128F6D030BDC5010020150300205104002050
:203F0400064900EB8000084441780129C6BF04490978002180780844C0B27047E41B0020B4
:203F2400B930002030B5074D282400FB0450C469406A646804EB8104246811461A46A0475F
:203F440030BDC0462C1C002030B5064D0446001DA8472069012802D02046034CA047012033
:203F640030BDC046D90300207106002030B5FFF791FE08D0FFF716FD02D0FFF74BFD01E07B
:203F84002046024CA047002030BDC0465105002030B5FFF77FFE08D0FFF704FD02D0FFF70A
:203FA40039FD01E02046024CA047002030BDC0466905002030B5FFF76DFE08D0FFF7F2FCA8
:203FC40002D0FFF727FD01E02046024CA047002030BDC0468105002030B5FFF75BFE08D0B0
:203FE400FFF7E0FC02D0FFF715FD01E02046024CA047002030BDC046C903002030B5FFF7BB
:2040040049FE08D0FFF7CEFC02D0FFF703FD01E02046024CA047002030BDC04699050020A8
:2040240030B5FFF737FE08D0FFF7BCFC02D0FFF7F1FC01E02046024CA047002030BDC046A2
:20404400B105002010B4002250B946F2A823CFF2030346F2B024CFF2030481E8180000E098
:204064000122104610BC704730B581B00C460749864609780120154629B900937146FFF79D
:204084009FFC0220A04701B030BDC046B830002000B5064C0D46A047054A064B02EB80027C
:2040A400D178282001FB0033507800BDF9060020E01B00202C1C002070B5084D282400FB54
:2040C40004542568606AE4696918A4681E46A047012808BF0026304670BDC0462C1C0020E1
:2040E40000B5064CA047064C8046A047054D286801284FF001064FF0000400BD210C002031
:2041040065110080AC2C0020012046F24C12CFF20302136813F0010F01D0002005E0126852
:2041240012F0020F08BF7047012008600020704710B581B08E46074903460978012031B99B
:20414400009219467246044C00230720A04701B010BDC046B83000203519002000B503205F
:20416400E860064CA047288A054CA047E86AE9684160044CA047002400BDC0466511008078
:20418400090A00205514008010B582B0064C6946A04738B9054C6846A0470146044C002290
:2041A4006846A04702B010BD3D0800200D130020E105002010B582B0064C6946A04738B96C
:2041C400054C6846A0470146044C01226846A04702B010BD3D0800200D130020E10500207C
:2041E40030B50A4C282300FB0343987E1D68824288BF0246586ADB6969185D691446A84770
:20420400012808BF0024204630BDC0462C1C0020094900EB80000844C078084A1C2100FBFA
:20422400012200215160516105490A68904218BF7047022008607047E41B0020702C002097
:20424400102C002030B581B015460A4A86460C46182100FB01214969012011F0010F07D109
:204264000549097821B900937146FFF7A9FBA04701B030BD3C2C0020B830002070B4CA6A40
:204284000C880B4ED3688A69C969282504FB05641A44E568C91AA368521B5B1B9B1A5B1C70
:2042A400994288BF19468160026070BC7047C0462C1C002030B583B0FFF76CFB094C68466D
:2042C400A0472888084C029A0099A047FFF766FB02D1FFF743FF02E02846044DA84720467B
:2042E40003B030BD6D0D0020D90900203D02002030B583B0FFF74EFB0B4C6846A0470020BC
:204304000199FF2202E001F8012B401C029B9842F9D3029868600020E86000F0E7F8FFF7A9
:204324008BFB03B030BDC0460511002030B583B0FFF730FB094C6846A0472888084C029A54
:204344000099A047FFF72AFB02D1FFF707FF02E02846044DA847204603B030BD750A0020BA
:20436400D90900206102002010B581B00B4C03468E46182100FB01414969012011F0010FF0
:2043840009D10749097831B9009219467246054C00230520A04701B010BDC0463C2C00204F
:2043A400B83000203519002030B583B0FFF7F2FA0A4C6846A0472888094C029B019A0099C8
:2043C400A047FFF7EBFA02D1FFF7C8FE02E02846044DA847204603B030BDC04605110020B6
:2043E400B10800205502002070B505462888296A6A6AEB690A4CA0474FF0010628B9E869D9
:2044040068602846074CA04707E00320E86000266E60FFF713FDFFF70FFB304670BDC04633
:204424001D0700206D02002070B40D4A0D4C02EB8002D0785278182300FB0343521E0BE079
:204444009C68A14206D31D7C9E8905FB0644641EA14203D91833401C9042F1D370BC70472D
:20446400E01B0020F81B0020F0B50D4A0E461821044600FB0120C17C807C5FEA811505EBF3
:204484000015084F284621463246B847002818BFF0BD2146034C05F108003246A047F0BDF4
:2044A400F81B0020B50D002010B50F4A282100FB0120C169406A8C69A047052811D8DFE8D3
:2044C40010F0060008000A000C0010000E00002010BD012010BD042010BD052010BD0620B2
:2044E40010BD032010BDC0462C1C002000B50E4CA047E86A6A6850F80C1F11440160E86AF8
:2045040050F8081F09B9E9680160E86AE969C068884205D3288A054CA047E86A8168416080
:20452400E86A0021017000BD65110080090A00200B4901200A68012A18BF7047496800203C
:204544000129084B1A6806D0032902D0052904D004E0054A02E0054A00E0054A1A607047BE
:20456400AC2C0020142C00207D160020D91A00206D140020F0B40C46E16A0546C968A069B2
:204584000D4F084421884FF0280601FB0672917EB0FBF1F301FB03F1A0EB0101A0EB01003E
:2045A400D168A0EB01002860208800FB0670807EA860F0BC7047C0462C1C002010B400F501
:2045C400C05040F20003CAF64073C05810F4004F11D110F4804F10D0094C182301FB03414F
:2045E4008B688989D21AB2FBF1F210F03F00904201D1012002E0002000E0022010BC7047AB
:20460400F81B002030B583B0FFF7C4F90D4C6846FFF7F4F904D02888FFF7BAFA408A029024
:204624002888094C029A0099A047FFF7B7F902D1FFF794FD02E02846044DA847204603B0AC
:2046440030BDC046750A0020E90E00201902002030B583B0FFF79EF90E4C6846FFF7CEF908
:2046640004D02888FFF794FA807E0290FFF7CCF92888094C029B0099A047FFF78FF902D170
:20468400FFF76CFD02E02846044DA847204603B030BDC046750A0020A5100020E90100209D
:2046A400012040F21801CFF60401096840F21002CFF60402126840F23403CFF604031B680E
:2046C40013F0060F0DD111F0030F0BD012F0FF0F04D113F01F0F04D1002003E013F0010FF1
:2046E40000D0042001490B627047C046AC2C00202DE9F043134C282300FB0344607D656877
:20470400B4F8129018B1AA4201D32A4602E04A4588BF4A469046FFF74DF9E3691E69B0472A
:2047240001280CD1A84508D1E369606A1C6939464A46A04708B9C84601E05FF0000840468B
:20474400BDE8F0832C1C002030B50D49012008600C4800254560058085604561C560056158
:2047640009480A4CA0470A48416931F0010141614560C560074908488163084CA04730BD70
:20478400102C0020702C0020882C0020790200203C2C002049100020FC2C00201906002006
:2047A40030B583B0FFF7F6F80F4C6846A047FFF72BF9288A0D4900EB800008440079029B1A
:2047C400009983420A4C88BF034602932888A047FFF7E4F802D1FFF7C1FC02E02846054D6B
:2047E400A847204603B030BD750A0020E41B0020B10800202502002010B5124CA0470428AC
:2048040000D0E8B910494A68012A0AD1BFF34F8FFFF7F6F9F022FFF78DF9BFF34F8FBFF3CD
:204824004F8FBFF34F8FFFF7EBF9FA22FFF782F9BFF34F8FBFF34F8F08600448FFF774F968
:20484400012010BD990E0020AC2C0020290D00202DE9F0410546012427460F4E306801280F
:2048640010D0DFF83880C0473068022805D134600B48406808B100203060306800B937683E
:20488400084EB04727B900242C602846064DA8472046BDE8F081C046102C002065110080B3
:2048A400702C002055140080650400202DE9F047154C9246282200FB0244207D258A94F8DD
:2048C4001A9018B1AB4201D32B4602E04B4588BF4B469846FFF76EF8E6695246F668B0476F
:2048E40001280DD1A84509D1606AE4693946E46852464B46A04708B9C84601E05FF00008ED
:204904004046BDE8F087C0462C1C002070B583B00C460546E06AE169C068A269091A02445E
:204924002088104E282300FB0360C068121A2A60208800FB0360807E814201D2A96009E05A
:204944002146094E6846B0470098029908442968401AA860606AE16AC9680844686003B071
:2049640070BDC0462C1C00206D0D002010B4002040F23401CFF6040140F21802CFF60402D2
:2049840040F21004CFF604040B6813F0060F11D1136813F0030F0ED0236813F0FD0F05D1B5
:2049A400086810F01F0F05D1022004E00B6813F0010F00D001200028E6D0086810F01F0095
:2049C400D0F1010038BF0020401C10BC7047000030B505462888124CA04701284FF000048A
:2049E40002D10120E86019E0296B11F0010F04D00220E86028460B4D0FE010B928460A4D58
:204A04000BE0062804D1094C2846A047012405E0E860002068602846054DA847204630BDBE
:204A2400A10C0020DD0100209903002049020020B903002030B504462068164A1C2100FB55
:204A440001200188144BA18218224168A1618168E161C1682162016961624169A16200216F
:204A64008069E0622161E160A08A00FB02322263A160616B31F001016163A269E169062A2D
:204A840001D1064D03E0226B054DD2681144A847A08030BD702C00203C2C0020FD0500203A
:204AA400B106002010B5002015494860C8600860BFF34F8F5FF02F4140F2C000CFF204009A
:204AC4000160F02145F25452CFF205021160BFF34F8FBFF34F8FBFF34F8F5FF02F4101607A
:204AE400FA201060BFF34F8FBFF34F8F00221046044C0549A0470549054A116010BDC0462A
:204B0400AC2C002001090020182C0020290D0020142C002030B4034618680568586804680F
:204B24004FF6FC7015EA000191F0FC0114F0800F00D10DE010EA41005FEA513292EA11322B
:204B440092EAD12292EA510212F0040250EA020135F47F4535F0FF0051F00101084314F427
:204B6400807F024609D059680968C0F30F004FF6FF7494EA114464F31F401968086010469D
:204B840030BC70472DE9F041154C0E461546A047144C0746A047144A106801284FF0010855
:204BA4004FF0000411D04046042182E8030096601461D560147797610C49182007FB0010F3
:204BC40044468089B5FBF0F55561094DA8471CB1084CA0475FF000084046BDE8F081C046AD
:204BE400210C002065110080AC2C0020F81B002055140080C517002000B55FF02F4140F2B8
:204C0400C003CFF204031960FA2145F25452CFF205021160BFF34F8F5FF02F4119604AF653
:204C24005021CFF205010860BFF34F8F5FF02F40186000204AF65821CFF205010860BFF350
:204C44004F8F5FF02F40186080204AF6A821CFF205010860BFF34F8F5FF02F401860562028
:204C64000860BFF34F8FFFF781FE02280CBF0120002000BD30B5BFF34F8FFFF715F8BFF3A6
:204C84004F8FBFF34F8F184D0020A847BFF34F8F16488068FEF7CCFFBFF34F8FBFF34F8F78
:204CA400FEF784FE0020FEF74BFFBFF34F8FBFF34F8FFEF77BFEA0204AF6A821CFF20501FC
:204CC4000860BFF34F8FBFF34F8FFEF76FFEAC200860BFF34F8FBFF34F8FFEF789FF0448C9
:204CE400FEF722FF012030BD81090020AC2C0020F10F00202DE9F0470F4692469946FFF77B
:204D0400EFF90FD03046022185E80300AF60C5F810A0C5F80C902C77FEF7D0FFB9FBF0F0EF
:204D240068613446104FB847D4B110480068012809D10F49182008FB001108688968401A27
:204D4400A9680144A960A8685246494604E010F8013B491E02F8013B0029F8D100262E604E
:204D64003046BDE8F087C04655140080182C0020F81B002000B5E568E06A002D20D1016943
:204D840009B1491E01611A4DA847E06A626850F80C1F11440160E06A50F8081F09B9E16835
:204DA4000160E06AE169C068884205D3208A114DA847E06A81684160E06A0021017014E095
:204DC40005788D4209DA6168994203D1B3FBF2F3036100BD6D1C057000BD054DA847208ACE
:204DE400044DA847E06AE1684160034CA04700BD65110080090A00205514008030B5044607
:204E0400A168E06869B108B908460AE0032801D1032006E0052801D0052901D1052000E021
:204E24000420E06008B104281CD1144DA847E06A626850F80C1F11440160E06A50F8081FF2
:204E440009B9E1680160E06AE169C068884205D3208A0B4DA847E06A81684160E06A002154
:204E6400017007E0054DA847208A054DA847E06AE1684160FEF7E0FD30BDC04665110080BB
:204E8400090A002030B5254CA04704284FF0010401D100243CE0F0BB214881684069BFF3C4
:204EA4004F8F5FF02F4240F2C005CFF204052A60FA22FEF73FFEBFF34F8FBFF34F8FBFF3E5
:204EC4004F8F5FF02F422A604AF65022CFF205021160BFF34F8FBFF34F8F5FF02F41296053
:204EE400FEF72EFEBFF34F8FBFF34F8F5FF02F402860FEF73DFEBFF34F8FBFF34F8F5FF088
:204F04002F4028605F200860BFF34F8FBFF34F8F0448FEF709FE204630BDC046990E002027
:204F2400AC2C0020F10F00202DE9F04389461746FFF7D6F809D030460321FEF771FEFEF750
:204F4400BDFEB7FBF0F76F6134461E4FB847ACB3BFF34F8FFEF7A8FEBFF34F8FBFF34F8F99
:204F6400194E0020B047BFF34F8FFEF71FFD4AF65020CFF20500C0F80090BFF34F8FBFF30E
:204F84004F8F68695FF02F412160FEF7D9FDBFF34F8FBFF34F8FFEF709FDFEF7E9FDBFF3AB
:204FA4004F8FBFF34F8FFEF701FD50200860BFF34F8FBFF34F8FFEF71BFE00263046BDE845
:204FC400F083C0465514008081090020F0B5294DA868BFF34F8F5FF02F4140F2C004CFF290
:204FE40004042160FA2145F25456CFF205063160BFF34F8FBFF34F8FBFF34F8FFEF718FE10
:20500400BFF34F8FBFF34F8FFEF7D0FC0020FEF797FDBFF34F8FBFF34F8FFEF7C7FCFEF735
:20502400A7FDBFF34F8FBFF34F8FFEF7BFFC56200860BFF34F8FBFF34F8F0F4FB847012874
:20504400FBD0286A10F01F0002D0102802D003E0002002E0052000E004202860BFF34F8FCE
:20506400FEF7A4FCFA203060BFF34F8FBFF34F8FF0BDC046AC2C0020990E00202DE9F04F06
:205084008B46DBF80090264C4946A047254A1821254C00FB0126824636F80C7FA047234DDD
:2050A400286801284FF001084FF000040AD040460521FEF7B5FDC5F818A044463088B7FB12
:2050C400F0F76F611A4EB0473CB31A4C50464946A0470228CBF804001DD0686801280AD1A3
:2050E400BFF34F8FFEF794FDF020FEF72FFDBFF34F8FBFF34F8FBFF34F8FFEF789FDFA2020
:20510400FEF724FDBFF34F8FBFF34F8F042028600948FEF709FD5FF000084046BDE8F08F5C
:20512400210C0020F81B002065110080AC2C002055140080610C0020290D00202DE9F04FDC
:205144000646884692461F46DDF824B0FEF7A4FE3ED0224908EB8800084490F803902049F0
:205164001C2009FB00104660A0F80080C0F808A04761C0F80CB000210161FEF72DFC1AD80E
:20518400DFE816F007000A000D001900100016001300144EB0470FE0134EB0470CE0134EE1
:2051A400B04709E0124EB04706E0124EB04703E0114EB04700E00027394610480268012ACB
:2051C40002D002684A4501D2C0F80090FEF794FD0B4DA8472046BDE8F08FC046E41B002069
:2051E400702C0020850200209D020020A902002091020020B5020020C1020020102C0020F5
:20520400551400802DE9F04F2F4C0E4693469846A0472E4A182100FB01278246787C4FF010
:20522400010980458CBF01250025294635B1F889B6FBF0F200FB02F0301A01D0002940D15A
:20524400234CA0472348016801294FF0000410D0C0F80090C0F804908660C0F810B0C0F829
:205264000C800577C0F818A04C46B989B8FBF1F14161194DA84724B3BFF34F8F5FF02F402D
:2052840040F2C005CFF204052860FA2045F25456CFF205063060BFF34F8FBFF34F8F0F4CEF
:2052A4000020A047BFF34F8F5FF02F40286050203060BFF34F8FBFF34F8FFEF799FC5FF014
:2052C40000094846BDE8F08F210C0020F81B002065110080AC2C002055140080810900200E
:2052E4002DE9F041012440F23400CFF60400006810F0060F01D0002468E040F21000CFF64E
:205304000400006810F4001F63D0334E334F0020F568B84700275FEA950240F2C001CFF28D
:205324000401AA235FF02F4545F2F05814E0BFF34F8F306950F827E00D6017F0010008EB81
:20534400800050F0704050F4A020C0F800E0BFF34F8FBFF34F8F7F1C9742E8D3307F012816
:2053640008BFA623BFF34F8FB0685FF02F420A604AF65022CFF205021060BFF34F8FBFF39B
:205384004F8F5FF02F40086000204AF65822CFF205021060BFF34F8FBFF34F8F5FF02F4015
:2053A4000860A0204AF6A822CFF205021060BFF34F8FBFF34F8F5FF02F4008601360BFF314
:2053C4004F8FBFF34F8F064D0020A8470548FEF7ABFB2046BDE8F081AC2C002081090020F3
:2053E400AD090020F10F0020000101000101000040000000010900205D030020DD040020C4
:20540400008000800000080000800080004000010B2000000100000003000000EC1B0020E9
:20542400CD020020D9020020E5020020F1020020FD0200200080008000000800FF3F03807C
:2054440000800080000100400000000B00012000101C0020000000000000000000BFFDE7EC
:2054640000F0FCB900F09EB800F05EB800F012B800F04AB80148406A00687047EC5B0080B2
:20548400016921F0010101614FF00001418281827047000003480068C069006880F311881C
:2054A4007047C046D45B008004F10C010191216B00943434039502910494704700B52068A9
:2054C40000680068C0681030FBF704FD2168096800BD000001F10C02009101920A6B3431E8
:2054E40002920022039204917047000070B585B000F06EF881F31488FFF7D6FF6946084689
:2055040001DF05B070BD000000B583B0EFF312800290202080F3118802980090FBF7DAFC99
:20552400FFF79CFF03B000BD07480068C069EFF312814DF8041D4FF0200181F311885DF8E9
:20554400041B01607047C046D45B008030B400214EF20043CEF2000308E0C26952F8212072
:20556400126892E830002A46D454491C028C9142F3D330BC7047000030B400214EF20043B4
:20558400CEF2000308E0826852F82120126892E830002A46D454491C82899142F3D330BC36
:2055A4007047000030B50848084D04686869FBF791FC2846FFF7CAFF2046FFF7DDFF606EB7
:2055C400BDE8304000F01CB8D45B0080EC5B008000B505460020A860EFF31280C0B2EFF388
:2055E4001486286336F00400C0B2E86205F10C000C4600F0EFF9E16A16F00406314300BDE4
:2056040082684FF0E021C1F8182DC268C1F81C2D0269C1F8202DD1F8242D42F4E022C1F8B6
:20562400242DD1F8142D42F00102C1F8142D4068C1F8080D4FF0200080F311887047000044
:20564400F0B50346D8684468E068B4F84450808D85422ADA18690C2105FB010758685FEA4D
:20566400551115F01F025FF0004E50F821603EFA02F2164340F821603EFA01F019680A68DA
:2056840002430A603868B968026802B901600168491E016039687868096840F82140D86814
:2056A4000580D8684068C0688585D8684168C160D86801880181D868C068F0BD30B583B0C5
:2056C4000246254CFFF7D6FE05685069EFF312810291202181F3118802990091C069B0F9C9
:2056E4001C10092902DBFFF70FFF32E000F1200343F82150B0F91C10491C81836FF00601F1
:205704002068006802605368146803F13C0083E8030060695863A06998630020D862A06874
:205724001863012098600D48586520681864E06898646068D8645FF0807098652069186531
:205744005068C26368685168FFF7D0FE009880F3118803B030BDC046105C0080C959008043
:20576400DFF8F4C05CF823C0CCF80400CCF80810CCF80C200CF17C0181E8F00F4EF628542D
:20578400CEF20004D4F8004041F2100504EA0504002C15D04FF00005CCF800504DF6AD6538
:2057A400CCF81050CCF814504BF6DF25CCF81850CCF81C50CCF82050CCF868D020E0C046C2
:2057C4004FF00105CCF80050039DCCF81050049DCCF81450059DCCF81850069DCCF81C503E
:2057E400079DCCF82050079D4FF0000605F40075002D18BF042608AD3544CCF86850C04698
:20580400EFF31085CCF86C50EFF31185CCF87050EFF31385CCF87450EFF31485CCF8785088
:205824004DF6AD654FF024064CF8065006F10406642EF9D1CCF864504FF09C064CF80650BC
:2058440006F10406DC2EF9D14DF6AD65CCF8DC50CCF8E0507047C046C45B0080F0B585B000
:20586400574CFFF707FE05686E69EFF312800290202080F3118802980090E86810F8181F37
:20588400012902D1002101703AE00020E96809E08B6800220BB1012B00D101220AB1012034
:2058A40003E0096809680029F2D1D0F1010038BF002010B92846FBF70DFB0020E96805E0D3
:2058C4008A68022A01D1012003E0096809680029F6D1D0F1010038BF002010B92846FBF7FC
:2058E400F9FAA8690169828A11F001011143428A1143D1F1010138BF002109B9FFF7C0FD62
:20590400E86B006840685FEA501210F01F00012111FA00F04EF28021CEF2000141F822003C
:20592400F069B0F91C10002946D0491E818300F12001B0F91C20002051F82250298E0129D8
:2059440014BFB1F5007F0120002824D068690026006AC168CA6849688A4204D0FFF770FE9D
:205964000746012600E02F46FFF7A8FD0F6016B17E6B06B1B0477968EFF31482CB6A12F062
:205984000402134383F31488FFF7A4FD6946084601DFFFF7B9FDFFF791FD0D60EFF314820C
:2059A40012F004026968CB6A134383F31488FFF791FD6946084601DFFFF7A6FD05B0F0BD11
:2059C400105C00808D464FF0000282F310888CF31488184780E8F00F7047069B13F8023C34
:2059E400012B43D0022B18D0002B1CD088B0DFF8B00106904FF0807107914FF000010E9A32
:205A04000092EFF3148303F00103A3F10103019381F31488BFF34F8F7047DDF814E081F3C0
:205A2400148885467047EFF31481EFF3118206B56FF0060E4FF0000383F3148801A988B0F4
:205A4400CDF8000001914FF080710791794601F10C010691BFF34F8F704700BFFFF708FDCD
:205A6400BDE80640684682F3118802DF4FF0200181F31188C16800291CBFC1F800D0C1F8BE
:205A840004E090E80E0091E8E00087F31088AD46B64692E8F00F83F3118870474FF020019F
:205AA40081F31188069B88B0DFF8F80006904FF0807107914FF000010193EFF3148303F08F
:205AC4000103A3F10103029381F31488EFF3058140F2FF1201EA020100916FF0060EBFF332
:205AE4004F8F70474FF00003FFF73AFEDFF8B800D0F80000069B88B00193EFF3148303F06D
:205B04000103A3F101030293DFF8A00006904FF0807107914FF0000181F31488EFF30581C3
:205B240040F2FF1201EA020100916FF0060EBFF34F8F70474FF00003FFF712FEDFF868005E
:205B4400D0F8000041688268194B4FF000009860D9601A61BFF34F8FBFF36F8FDFF8480038
:205B6400D0F80000069AD0F800D088B0DFF8440006904FF0807107914FF00001EFF31483B7
:205B840003F00103A3F10103019381F3148881F314886FF0060E0092BFF34F8F7047C0466C
:205BA4007554008075540080DC5B00807554008090ED00E0755400806C5C008070310020A0
:205BC400EC31002000000000605C0080000000006C5D008000000000545C008000000000CF
:205BE40000000000000000001E000100023D010001000000145C008000000000145C008061
:205C040000000000CC5B008001000000C05B00800000000013000000000000000D5E00803F
:205C2400043300200037002004370020003B0020043B0020003F0020043F00200043002078
:205C4400C05C00800000000020000000030000000443002000000000000000004C5C0080F2
:205C6400185C008000000000E8320020BC5B00800100000000000000245C00802C5C008052
:205C8400345C00803C5C008000000000000000000000008000000000000000000000000058
:205CA400043F00200000000020000000D90E0080655400800000000000000000A45C00803D
:205CC40090310020345C008074310020085D00806C5D0080D03000200000000000000000BC
:205CE400E45B00800000000000000000020000000000000000000000605C008000000000A3
:205D040001000000683100206C5D008001000000145C008000000000445C0080010000006A
:205D2400145C008000000000145C008000000000145C008000000000145C0080000000009F
:205D4400145C008000000000000000000000000000000000145C008000000000000000005F
:205D64000101000000000000F03200201C5C0080145C0080000000000000000000000000F3
:205D840001010001D03000200000000000000000085D00803C5C00800000000000000000DF
:205DA4000000000000000000000000000000000000000000145C008000000000145C0080FF
:205DC40000000000145C008000000000905C008000000000000000007C5C00800400000007
:205DE4000000000000000000145C0080000000006C5C0080145C0080000000006C310020BA
:205E0400445C008001000000FFE7FFE7FFE7FFE74FF0000012490A4601F11001D2F80030DE
:205E2400546895684FF0000646EA030646EA040646EA0506002E0AD0A842ECD14FF00006BE
:205E4400C3F8006003F10403A342E4D0F8E7FFE704488546FFE7FBF71BBDFBF755B8C046FE
:0A5E6400740900800C2C00200000DF
:025E7000000030
:025E740000002C
:20600000EFF311824FF0200383F31188EFF3148106B54FF0000282F3148888B04FF08071AE
:2060200007916FF0060E794601F10C010691BFF34F8F704700BFDFF81400FFF741FBBDE838
:106040000640684682F3118802DFC046C05C0080CB
:02680000000096
:0270000000008E
:20800000736A253E0000000000000000000000000000000000000000000000000000000020
:208040000022240000000000000000000000000000000000000000000000000000000000DA
:20806000DFF800F0C9010020DFF800F0A1010020DFF800F005020020DFF800F08D01002063
:208080000000000000000000000000000000000000000000000000000000000000000000E0
:2080A0000000000000000000000000000000000000000000000000000000000000000000C0
:2080C0000000000000000000000000000000000000000000000000000000000000000000A0
:2080E000000000000000000000000000000000000000000000000000000000000000000080
:2081000000000000000000000000000000000000000000000000000000000000000000005F
:2081200000000000000000000000000000000000000000000000000000000000000000003F
:2081400000000000000000000000000000000000000000000000000000000000000000001F
:20816000DFF810D004485FF0E021C1F8080D25F009FB7047147B002000D802800000000005
:208180000000000000000000000000000000000000000000000000000000000000000000DF
:2081A0000000000000000000000000000000000000000000000000000000000000000000BF
:2081C00000000000000000000000000000000000000000000000000000000000000000009F
:2081E00000000000000000000000000000000000000000000000000000000000000000007F
:2082000000000000000000000000000000000000000000000000000000000000000000005E
:2082200000000000000000000000000000000000000000000000000000000000000000003E
:2082400000000000000000000000000000000000000000000000000000000000000000001E
:208260000000000000000000000000000000000003000000000000000000000000000000FB
:208280000000000000000000030000000000000000000000000000000000000000000000DB
:2082A0000400000000000000000000000000000000000000000000000300000000000000B7
:2082C00000000000000000000000000000000000030000000000000000000000000000009B
:2082E00000000000000000000300000000000000000000000000000000000000000000007B
:20830000030000000000000000000000000000000000000000000000040000000000000056
:2083200000000000000000000000000000000000030000000000000000000000000000003A
:2083400000000000000000000300000000000000000000000000000000000000000000001A
:208360000300000000000000000000000000000000000000000000000300000000000000F7
:2083800022AE28D7982F8A42CD65EF23914437712F3B4DECCFFBC0B5BCDB8981A5DBB5E919
:2083A00038B548F35BC2563919D005B6F111F1599B4F19AFA4823F9218816DDAD55E1CAB76
:2083C000420203A398AA07D8BE6F7045015B83128CB2E44EBE853124E2B4FFD5C37D0C55AC
:2083E0006F897BF2745DBE72B196163BFEB1DE803512C725A706DC9B942669CF74F19BC168
:20840000D24AF19EC1699BE4E3254F388647BEEFB5D58C8BC69DC10F659CAC77CCA10C246A
:2084200075022B596F2CE92D83E4A66EAA84744AD4FB41BDDCA9B05CB5531183DA88F9765E
:20844000ABDF66EE52513E981032B42D6DC631A83F21FB98C82703B0E40EEFBEC77F59BF04
:20846000C28FA83DF30BE0C625A70A934791A7D56F8203E05163CA06706E0E0A672929144A
:20848000FC2FD246850AB72726C9265C38211B2EED2AC45AFC6D2C4DDFB3959D130D385393
:2084A000DE63AF8B54730A65A8B2773CBB0A6A76E6AEED472EC9C2813B358214852C72929C
:2084C0006403F14CA1E8BFA2013042BC4B661AA89197F8D0708B4BC230BE5406A3516CC705
:2084E0001852EFD619E892D110A96555240699D62A20715785350EF4B8D1BB3270A06A100F
:20850000C8D0D2B816C1A41953AB4151086C371E99EB8EDF4C774827A8489BE1B5BCB03468
:20852000635AC9C5B30C1C39CB8A41E34AAAD84E73E363774FCA9C5BA3B8B2D6F36F2E682E
:20854000FCB2EF5DEE828F74602F17436F63A57872ABF0A11478C884EC39641A0802C78C50
:20856000281E6323FAFFBE90E9BD82DEEB6C50A41579C6B2F7A3F9BE2B5372E3F27871C6CC
:208580009C6126EACE3E27CA07C2C021C7B886D11EEBE0CDD67DDAEA78D16EEE7F4F7DF59F
:2085A000BA6F1772AA67F006A698C8A2C57D630AAE0DF9BE04983F111B471C13350B711BF0
:2085C000847D0423F577DB289324C7407BABCA32BCBEC9150ABE9E3C4C0D109CC4671D439A
:2085E000B6423ECBBED4C54C2A7E65FC9C297F59ECFAD63AAB6FCB5F1758474A8C19446CA2
:20860000800800208008002080080020800800208008002080080020200F0020200F0020CC
:20862000EDF40080000000B002000C02D819002080080020D819002080080020200F002058
:2086400058060020200F002058060020200F0020B8120020200F002058060020200F00207A
:2086600058060020070000007C900080080000007C95008015000000CD0B0000FF00010261
:208680000304050606072A8648CE3D0101000000200F002058060020E01A0020200F002080
:2086A00058060020201C0020200F002058060020601D0020200F0020C80B0020B81200204A
:2086C00015000000FFFFFFFFFFFFFFFF00000101010000000000000000010000141C203009
:2086E000401C201C20304020401410002C8700802C870080A4870080B887008000000000FE
:2087000000000000000000000000000109000200030000000B000200030000000001020334
:208720000405060708090A0B0C0D0E0F79DF0080C9E100807DDF00800000000000000000E9
:208740000000000000020200000000000000000000000000010101111113130101000000C8
:20876000000000000000000000000000000000010100000000000000000000001010421085
:208780001030541143000010010000100100240000000000000000FEFE00000000000000AF
:2087A0000000000089EA008015020180B1E50080FFFFFFFF0200000099EA00800D16018073
:2087C00015F00080FFFFFFFF040000001800FFFFFFFF0000FFFFFF00FF0100000000010101
:2087E00000000000000103000104000100010000010500010001000006000206380004F02C
:20880000340004F0200004F0280004F0280004F000000100050000000700000004000000D3
:208820000000000006000000020000000100000021830180B5DF0080C1E10080097D0180CD
:20884000B5770180D9EF008071000180E126018058020020580600200000000000000000B1
:208860000000000000000000000000000000000000000000000000000000000000000000F8
:208880000000000000000000000000000000000100000000000000000000000000000000D7
:2088A0000000000000000000000000000000000207000200030000000100030005000100A0
:2088C00000000400050001000600010002000000EDD3F55C1A631258D69CF7A2DEF9DE14B9
:2088E00000000000000000000000000000000010EDD3F55C1A631258D69CF7A2DEF9DE149C
:2089000000000000000000000000000000000010FEFFFFFFFFFFFFFFFFFFFFFFFFFFFFFF58
:20892000FFFFFFFFFFFFFFFFFFFFFFFFFFFFFF0F000102030405060708090A0B0C0D0E0FBF
:20894000101112131415161718191A1B1C1D1E1F53696745643235353139206E6F20456407
:20896000323535313920636F6C6C6973696F6E73FFFFFFFF31750000FFFFFFFF327500004D
:20898000FFFFFFFF34750000FFFFFFFF35750000A3785913CA4DEB75ABD841414D0A7000C2
:2089A00098E879777940C78C73FE6F2BEE6C0352B0A00E4A271BEEC478E42FAD0618432F1D
:2089C000A7D7FB3D99004D2B0BDFC14F8024832B41DB010000000000000000000000000067
:2089E00000000000000000000000000000000000EDFFFFFFFFFFFFFFFFFFFFFFFFFFFFFF99
:208A0000FFFFFFFFFFFFFFFFFFFFFFFFFFFFFF7F59F1B226949BD6EB56B183829A14E0003A
:208A200030D1F3EEF2808E19E7FCDF56DCD9062453696745643235353139206E6F204564AC
:208A4000323535313920636F6C6C6973696F6E7300000000C6FFFFFFFFFFFFFFC6FFFFFF2F
:208A6000FFFFFFFFC6FFFFFFFFFFFFFFC6FFFFFFFFFFFFFFC65FFAFA1B132C0AA3E59CEDEE
:208A8000A72963085D210621EBFFFFFFFFFFFFFFFFFFFFFFFFFFFFFF0F0000001B132C0AA7
:208AA000A3E59CEDA72963085D210621EBFFFFFFFFFFFFFFFFFFFFFFFFFFFFFF0F000000DA
:208AC000841800200000020000000200A1CE018005DE0180E90C018000000000B9EB0080E8
:208AE0001027000001000000010000000200000004000000080000001000000020000000FF
:208B000040000000800000001B0000003600000014121615171612090900FFFFFFFF1A1874
:208B20001E1AFFFFFFFF1817FFFF1514FFFFFFFFFFFFFFFFFFFFFFFF3027002088930080A5
:208B40000000000000000000C800000012000000000000000000000000000000000000003B
:208B6000010000002A8648CE3D04030455040655040855040755040A5504032A8648CE3D04
:208B800002012B81040022551D13551D0E551D23FD0001801DE00180350101803D6D018088
:208BA000350101803D6D0180FD0001801DE00180FD0001801DE00180FD0001801DE00180DF
:208BC00007000000020000000A00000004000000060000000500000000000000080000006B
:208BE0000100000009000000030000000B0000000700020003000000010003000500010047
:208C0000080003000500010009000300040000000000040005000100060001000200000020
:208C20000E00020002000700020002000100040002000D00040002000C00040002000300E8
:208C40000400020000000400020006000100010005000100010000000E00020002000100E6
:208C6000020002000900030002000A00030002000800020002000B00030002000D000200A8
:208C800002000C00020002000500010001000000080000000307040009000000040705008C
:208CA0000A000000060707000B000000050706000100000002070300040000000007010060
:208CC0000600000001070200070000000A00000008000000580204000002000203170000EF
:208CE000000000000600000009000000070000005802600200020002032D17002700000030
:208D000000000004000000043700010038000101390001023A000103090001050A00010540
:208D200011000004110000043E000104020000040300000401000006040000042E00010675
:208D40000E00020002000400020002000700020002000100040002000D00040002000C00C8
:208D6000040002000800040002000900030003000A000300030000000400020006000100B3
:208D800001000500010001004B65794D43657274696669636174655F4F53534C5F58353036
:208DA000395F45434453415F503338345F43414B65794D43657274696669636174655F4F03
:208DC00053534C5F583530395F45434453415F503338345F494100000300000059D10180A8
:208DE0000603000001D70180080600001D7A01800A080000A97801800B0A00002914018064
:208E00000E0B0000E1870180100E0000698801801210000041F301801312000075B001801E
:208E200015130000A1BE018018150000C5320180000000000100000001000000040000007F
:208E4000000000000400000000000000030000000200000000000000010000000100000007
:208E60000000000000000000010000000000000003000000000000000400000000000000EA
:208E8000050000000000000006000000000000000000000041200180680000000C00000071
:208EA00001000000ED090180240000000400000001000000ED090180240000000400000072
:208EC0000000000041200180680000000C0000000000000041200180680000000C000000E6
:208EE0000000000041200180680000000C00000000000000380000003C0000004000000068
:208F0000B4000000B8000000BC0000003001000034010000380100007001000074010000A4
:208F2000780100000C0000001000000014000000180000001C000000200000002400000010
:208F4000280000002C0000003000000034000000000005F0FFFF05F00100000000000090E0
:208F6000FFFF11900000000000000050FFFFFF7F0000000000000030FFFFFF410000000018
:208F800000000010FFFFFF1F00000000000000B0FFFF11B00100000000000480FFFFFF8034
:208FA00000000000000004A0FFFFFFA000000000000000000100000001000000000100006D
:208FC000000000000002000000000000040300000200000002040000010000000105000079
:208FE000000000000206000001000000020700000300000002080000040000000209000043
:2090000005000000020A000006000000020B0000070000000B000000070000001200000001
:2090200003000000060000000900000012000000080000002F000000200000000B000000AA
:209040002F0000002000000009000000060000001D0000000D000000030000001300000072
:209060000C0000002F00000020000000150000002F000000200000000E000000DC760020B1
:20908000DE7600200000000000000000E0760020E27600200000000000000000E8760020F0
:2090A000EA7600200000000000000000EC760020EE760020000000000000000058060020AC
:2090C000406D00200000000000000000446D0020466D00200000000000000000000000001F
:2090E00000000000000000000000000000000000000000000100000000000000020000006D
:20910000010000000300000001000000040000000100000005000000010000000600000039
:20912000010000000700000001000000080000000000000009000000000000000A0000000B
:20914000010000000B000000000000000C000000000000000D000000000000000E000000DC
:20916000000000000F000000010000001AD5258F602D56C9B2A7259560C72C695CDCD6FDB6
:2091800031E2A4C0FE536ECDD336692158666666666666666666666666666666666666664F
:2091A0006666666666666666666666660100000000000000000000000000000000000000E6
:2091C000000000000000000000000000A3DDB7A5B38ADE6DF5525177809FF0207DE3AB647E
:2091E0008E4EEA6665768BD70F5F8767E958C81E04002C000000460000000000472522423D
